
rtos.elf:     file format elf32-littlearm


Disassembly of section .text:

00000000 <_text>:
       0:	2000c000 	andcs	ip, r0, r0
       4:	00000de5 	andeq	r0, r0, r5, ror #27
       8:	0000026d 	andeq	r0, r0, sp, ror #4
       c:	00000275 	andeq	r0, r0, r5, ror r2
      10:	0000027d 	andeq	r0, r0, sp, ror r2
      14:	0000027d 	andeq	r0, r0, sp, ror r2
      18:	0000027d 	andeq	r0, r0, sp, ror r2
	...
      2c:	0000027d 	andeq	r0, r0, sp, ror r2
      30:	0000027d 	andeq	r0, r0, sp, ror r2
      34:	00000000 	andeq	r0, r0, r0
      38:	00000e1b 	andeq	r0, r0, fp, lsl lr
      3c:	00000435 	andeq	r0, r0, r5, lsr r4
      40:	0000027d 	andeq	r0, r0, sp, ror r2
      44:	0000027d 	andeq	r0, r0, sp, ror r2
      48:	0000027d 	andeq	r0, r0, sp, ror r2
      4c:	0000027d 	andeq	r0, r0, sp, ror r2
      50:	0000027d 	andeq	r0, r0, sp, ror r2
      54:	0000027d 	andeq	r0, r0, sp, ror r2
      58:	0000027d 	andeq	r0, r0, sp, ror r2
      5c:	0000027d 	andeq	r0, r0, sp, ror r2
      60:	0000027d 	andeq	r0, r0, sp, ror r2
      64:	0000027d 	andeq	r0, r0, sp, ror r2
      68:	0000027d 	andeq	r0, r0, sp, ror r2
      6c:	0000027d 	andeq	r0, r0, sp, ror r2
      70:	0000027d 	andeq	r0, r0, sp, ror r2
      74:	0000027d 	andeq	r0, r0, sp, ror r2
      78:	0000027d 	andeq	r0, r0, sp, ror r2
      7c:	0000027d 	andeq	r0, r0, sp, ror r2
      80:	0000027d 	andeq	r0, r0, sp, ror r2
      84:	0000027d 	andeq	r0, r0, sp, ror r2
      88:	0000027d 	andeq	r0, r0, sp, ror r2
      8c:	0000027d 	andeq	r0, r0, sp, ror r2
      90:	0000027d 	andeq	r0, r0, sp, ror r2
      94:	0000027d 	andeq	r0, r0, sp, ror r2
      98:	0000027d 	andeq	r0, r0, sp, ror r2
      9c:	0000027d 	andeq	r0, r0, sp, ror r2
      a0:	0000027d 	andeq	r0, r0, sp, ror r2
      a4:	0000027d 	andeq	r0, r0, sp, ror r2
      a8:	0000027d 	andeq	r0, r0, sp, ror r2
      ac:	0000027d 	andeq	r0, r0, sp, ror r2
      b0:	0000027d 	andeq	r0, r0, sp, ror r2
      b4:	0000027d 	andeq	r0, r0, sp, ror r2
      b8:	0000027d 	andeq	r0, r0, sp, ror r2
      bc:	0000027d 	andeq	r0, r0, sp, ror r2
      c0:	0000027d 	andeq	r0, r0, sp, ror r2
      c4:	0000027d 	andeq	r0, r0, sp, ror r2
      c8:	0000027d 	andeq	r0, r0, sp, ror r2
      cc:	0000027d 	andeq	r0, r0, sp, ror r2
      d0:	0000027d 	andeq	r0, r0, sp, ror r2
      d4:	0000027d 	andeq	r0, r0, sp, ror r2
      d8:	0000027d 	andeq	r0, r0, sp, ror r2
      dc:	0000027d 	andeq	r0, r0, sp, ror r2
      e0:	0000027d 	andeq	r0, r0, sp, ror r2
      e4:	0000027d 	andeq	r0, r0, sp, ror r2
      e8:	0000027d 	andeq	r0, r0, sp, ror r2
      ec:	0000027d 	andeq	r0, r0, sp, ror r2
      f0:	0000027d 	andeq	r0, r0, sp, ror r2
      f4:	0000027d 	andeq	r0, r0, sp, ror r2
      f8:	0000027d 	andeq	r0, r0, sp, ror r2
      fc:	0000027d 	andeq	r0, r0, sp, ror r2
     100:	0000027d 	andeq	r0, r0, sp, ror r2
     104:	0000027d 	andeq	r0, r0, sp, ror r2
     108:	0000027d 	andeq	r0, r0, sp, ror r2
     10c:	0000027d 	andeq	r0, r0, sp, ror r2
     110:	0000027d 	andeq	r0, r0, sp, ror r2
     114:	0000027d 	andeq	r0, r0, sp, ror r2
     118:	0000027d 	andeq	r0, r0, sp, ror r2
     11c:	0000027d 	andeq	r0, r0, sp, ror r2
     120:	0000027d 	andeq	r0, r0, sp, ror r2
     124:	0000027d 	andeq	r0, r0, sp, ror r2
     128:	0000027d 	andeq	r0, r0, sp, ror r2
     12c:	0000027d 	andeq	r0, r0, sp, ror r2
     130:	0000027d 	andeq	r0, r0, sp, ror r2
     134:	0000027d 	andeq	r0, r0, sp, ror r2
     138:	0000027d 	andeq	r0, r0, sp, ror r2
     13c:	0000027d 	andeq	r0, r0, sp, ror r2
	...
     150:	0000027d 	andeq	r0, r0, sp, ror r2
     154:	0000027d 	andeq	r0, r0, sp, ror r2
     158:	0000027d 	andeq	r0, r0, sp, ror r2
     15c:	0000027d 	andeq	r0, r0, sp, ror r2
	...
     1b0:	0000027d 	andeq	r0, r0, sp, ror r2
     1b4:	0000027d 	andeq	r0, r0, sp, ror r2
     1b8:	0000027d 	andeq	r0, r0, sp, ror r2
     1bc:	0000027d 	andeq	r0, r0, sp, ror r2
     1c0:	0000027d 	andeq	r0, r0, sp, ror r2
     1c4:	0000027d 	andeq	r0, r0, sp, ror r2
     1c8:	0000027d 	andeq	r0, r0, sp, ror r2
     1cc:	0000027d 	andeq	r0, r0, sp, ror r2
     1d0:	0000027d 	andeq	r0, r0, sp, ror r2
     1d4:	0000027d 	andeq	r0, r0, sp, ror r2
     1d8:	0000027d 	andeq	r0, r0, sp, ror r2
     1dc:	0000027d 	andeq	r0, r0, sp, ror r2
     1e0:	0000027d 	andeq	r0, r0, sp, ror r2
     1e4:	0000027d 	andeq	r0, r0, sp, ror r2
     1e8:	0000027d 	andeq	r0, r0, sp, ror r2
     1ec:	0000027d 	andeq	r0, r0, sp, ror r2
     1f0:	0000027d 	andeq	r0, r0, sp, ror r2
     1f4:	0000027d 	andeq	r0, r0, sp, ror r2
     1f8:	0000027d 	andeq	r0, r0, sp, ror r2
     1fc:	0000027d 	andeq	r0, r0, sp, ror r2
     200:	0000027d 	andeq	r0, r0, sp, ror r2
     204:	0000027d 	andeq	r0, r0, sp, ror r2
     208:	0000027d 	andeq	r0, r0, sp, ror r2
     20c:	00000000 	andeq	r0, r0, r0
     210:	0000027d 	andeq	r0, r0, sp, ror r2
     214:	0000027d 	andeq	r0, r0, sp, ror r2
     218:	0000027d 	andeq	r0, r0, sp, ror r2
     21c:	0000027d 	andeq	r0, r0, sp, ror r2
     220:	0000027d 	andeq	r0, r0, sp, ror r2
     224:	0000027d 	andeq	r0, r0, sp, ror r2
     228:	0000027d 	andeq	r0, r0, sp, ror r2
     22c:	0000027d 	andeq	r0, r0, sp, ror r2
     230:	0000027d 	andeq	r0, r0, sp, ror r2
     234:	0000027d 	andeq	r0, r0, sp, ror r2
     238:	0000027d 	andeq	r0, r0, sp, ror r2
     23c:	0000027d 	andeq	r0, r0, sp, ror r2
     240:	0000027d 	andeq	r0, r0, sp, ror r2
     244:	0000027d 	andeq	r0, r0, sp, ror r2
     248:	0000027d 	andeq	r0, r0, sp, ror r2
     24c:	0000027d 	andeq	r0, r0, sp, ror r2
     250:	0000027d 	andeq	r0, r0, sp, ror r2
     254:	0000027d 	andeq	r0, r0, sp, ror r2
     258:	0000027d 	andeq	r0, r0, sp, ror r2
     25c:	0000027d 	andeq	r0, r0, sp, ror r2
     260:	0000027d 	andeq	r0, r0, sp, ror r2
     264:	0000027d 	andeq	r0, r0, sp, ror r2
     268:	0000027d 	andeq	r0, r0, sp, ror r2

0000026c <NmiSR>:
     26c:	b480      	push	{r7}
     26e:	af00      	add	r7, sp, #0
     270:	e7fe      	b.n	270 <NmiSR+0x4>
     272:	bf00      	nop

00000274 <FaultISR>:
     274:	b480      	push	{r7}
     276:	af00      	add	r7, sp, #0
     278:	e7fe      	b.n	278 <FaultISR+0x4>
     27a:	bf00      	nop

0000027c <IntDefaultHandler>:
     27c:	b580      	push	{r7, lr}
     27e:	af00      	add	r7, sp, #0
     280:	4801      	ldr	r0, [pc, #4]	; (288 <IntDefaultHandler+0xc>)
     282:	f000 fb49 	bl	918 <printk>
     286:	e7fe      	b.n	286 <IntDefaultHandler+0xa>
     288:	0000188c 	andeq	r1, r0, ip, lsl #17

0000028c <clear_bss>:
     28c:	b480      	push	{r7}
     28e:	b083      	sub	sp, #12
     290:	af00      	add	r7, sp, #0
     292:	4b0a      	ldr	r3, [pc, #40]	; (2bc <clear_bss+0x30>)
     294:	681b      	ldr	r3, [r3, #0]
     296:	607b      	str	r3, [r7, #4]
     298:	e005      	b.n	2a6 <clear_bss+0x1a>
     29a:	687b      	ldr	r3, [r7, #4]
     29c:	2200      	movs	r2, #0
     29e:	701a      	strb	r2, [r3, #0]
     2a0:	687b      	ldr	r3, [r7, #4]
     2a2:	3301      	adds	r3, #1
     2a4:	607b      	str	r3, [r7, #4]
     2a6:	687a      	ldr	r2, [r7, #4]
     2a8:	4b05      	ldr	r3, [pc, #20]	; (2c0 <clear_bss+0x34>)
     2aa:	681b      	ldr	r3, [r3, #0]
     2ac:	429a      	cmp	r2, r3
     2ae:	d3f4      	bcc.n	29a <clear_bss+0xe>
     2b0:	370c      	adds	r7, #12
     2b2:	46bd      	mov	sp, r7
     2b4:	f85d 7b04 	ldr.w	r7, [sp], #4
     2b8:	4770      	bx	lr
     2ba:	bf00      	nop
     2bc:	20000000 	andcs	r0, r0, r0
     2c0:	20004240 	andcs	r4, r0, r0, asr #4

000002c4 <task1_entry>:
     2c4:	b580      	push	{r7, lr}
     2c6:	b082      	sub	sp, #8
     2c8:	af00      	add	r7, sp, #0
     2ca:	6078      	str	r0, [r7, #4]
     2cc:	200a      	movs	r0, #10
     2ce:	f000 f88f 	bl	3f0 <init_systick>
     2d2:	4806      	ldr	r0, [pc, #24]	; (2ec <task1_entry+0x28>)
     2d4:	4906      	ldr	r1, [pc, #24]	; (2f0 <task1_entry+0x2c>)
     2d6:	f000 fb1f 	bl	918 <printk>
     2da:	4806      	ldr	r0, [pc, #24]	; (2f4 <task1_entry+0x30>)
     2dc:	f001 f884 	bl	13e8 <task_suspend>
     2e0:	4805      	ldr	r0, [pc, #20]	; (2f8 <task1_entry+0x34>)
     2e2:	4903      	ldr	r1, [pc, #12]	; (2f0 <task1_entry+0x2c>)
     2e4:	f000 fb18 	bl	918 <printk>
     2e8:	e7f3      	b.n	2d2 <task1_entry+0xe>
     2ea:	bf00      	nop
     2ec:	000018a0 	andeq	r1, r0, r0, lsr #17
     2f0:	00001900 	andeq	r1, r0, r0, lsl #18
     2f4:	20002040 	andcs	r2, r0, r0, asr #32
     2f8:	000018b4 			; <UNDEFINED> instruction: 0x000018b4

000002fc <delay>:
     2fc:	b480      	push	{r7}
     2fe:	b083      	sub	sp, #12
     300:	af00      	add	r7, sp, #0
     302:	6078      	str	r0, [r7, #4]
     304:	bf00      	nop
     306:	687b      	ldr	r3, [r7, #4]
     308:	1e5a      	subs	r2, r3, #1
     30a:	607a      	str	r2, [r7, #4]
     30c:	2b00      	cmp	r3, #0
     30e:	d1fa      	bne.n	306 <delay+0xa>
     310:	370c      	adds	r7, #12
     312:	46bd      	mov	sp, r7
     314:	f85d 7b04 	ldr.w	r7, [sp], #4
     318:	4770      	bx	lr
     31a:	bf00      	nop

0000031c <task2_entry>:
     31c:	b580      	push	{r7, lr}
     31e:	b082      	sub	sp, #8
     320:	af00      	add	r7, sp, #0
     322:	6078      	str	r0, [r7, #4]
     324:	4805      	ldr	r0, [pc, #20]	; (33c <task2_entry+0x20>)
     326:	4906      	ldr	r1, [pc, #24]	; (340 <task2_entry+0x24>)
     328:	f000 faf6 	bl	918 <printk>
     32c:	2001      	movs	r0, #1
     32e:	f000 fead 	bl	108c <task_delay_s>
     332:	4804      	ldr	r0, [pc, #16]	; (344 <task2_entry+0x28>)
     334:	f001 f884 	bl	1440 <task_resume>
     338:	e7f4      	b.n	324 <task2_entry+0x8>
     33a:	bf00      	nop
     33c:	000018c8 	andeq	r1, r0, r8, asr #17
     340:	0000190c 	andeq	r1, r0, ip, lsl #18
     344:	20002040 	andcs	r2, r0, r0, asr #32

00000348 <task3_entry>:
     348:	b580      	push	{r7, lr}
     34a:	b082      	sub	sp, #8
     34c:	af00      	add	r7, sp, #0
     34e:	6078      	str	r0, [r7, #4]
     350:	4802      	ldr	r0, [pc, #8]	; (35c <task3_entry+0x14>)
     352:	4903      	ldr	r1, [pc, #12]	; (360 <task3_entry+0x18>)
     354:	f000 fae0 	bl	918 <printk>
     358:	e7fa      	b.n	350 <task3_entry+0x8>
     35a:	bf00      	nop
     35c:	000018c8 	andeq	r1, r0, r8, asr #17
     360:	00001918 	andeq	r1, r0, r8, lsl r9

00000364 <main>:
     364:	b580      	push	{r7, lr}
     366:	b082      	sub	sp, #8
     368:	af02      	add	r7, sp, #8
     36a:	f7ff ff8f 	bl	28c <clear_bss>
     36e:	4816      	ldr	r0, [pc, #88]	; (3c8 <main+0x64>)
     370:	f000 fad2 	bl	918 <printk>
     374:	f000 fd45 	bl	e02 <get_psp>
     378:	4603      	mov	r3, r0
     37a:	4814      	ldr	r0, [pc, #80]	; (3cc <main+0x68>)
     37c:	4619      	mov	r1, r3
     37e:	f000 facb 	bl	918 <printk>
     382:	f000 fd44 	bl	e0e <get_msp>
     386:	4603      	mov	r3, r0
     388:	4811      	ldr	r0, [pc, #68]	; (3d0 <main+0x6c>)
     38a:	4619      	mov	r1, r3
     38c:	f000 fac4 	bl	918 <printk>
     390:	f000 fefa 	bl	1188 <init_task_module>
     394:	4b0f      	ldr	r3, [pc, #60]	; (3d4 <main+0x70>)
     396:	9300      	str	r3, [sp, #0]
     398:	480f      	ldr	r0, [pc, #60]	; (3d8 <main+0x74>)
     39a:	4910      	ldr	r1, [pc, #64]	; (3dc <main+0x78>)
     39c:	f04f 3211 	mov.w	r2, #286331153	; 0x11111111
     3a0:	2300      	movs	r3, #0
     3a2:	f000 fd67 	bl	e74 <task_init>
     3a6:	4b0e      	ldr	r3, [pc, #56]	; (3e0 <main+0x7c>)
     3a8:	9300      	str	r3, [sp, #0]
     3aa:	480e      	ldr	r0, [pc, #56]	; (3e4 <main+0x80>)
     3ac:	490e      	ldr	r1, [pc, #56]	; (3e8 <main+0x84>)
     3ae:	f04f 3222 	mov.w	r2, #572662306	; 0x22222222
     3b2:	2301      	movs	r3, #1
     3b4:	f000 fd5e 	bl	e74 <task_init>
     3b8:	f000 ff76 	bl	12a8 <task_highest_ready>
     3bc:	4602      	mov	r2, r0
     3be:	4b0b      	ldr	r3, [pc, #44]	; (3ec <main+0x88>)
     3c0:	601a      	str	r2, [r3, #0]
     3c2:	f000 fe2d 	bl	1020 <task_run_first>
     3c6:	e7fe      	b.n	3c6 <main+0x62>
     3c8:	000018cc 	andeq	r1, r0, ip, asr #17
     3cc:	000018e8 	andeq	r1, r0, r8, ror #17
     3d0:	000018f4 	strdeq	r1, [r0], -r4
     3d4:	20002040 	andcs	r2, r0, r0, asr #32
     3d8:	20002040 	andcs	r2, r0, r0, asr #32
     3dc:	000002c5 	andeq	r0, r0, r5, asr #5
     3e0:	20003090 	mulcs	r0, r0, r0
     3e4:	20002068 	andcs	r2, r0, r8, rrx
     3e8:	0000031d 	andeq	r0, r0, sp, lsl r3
     3ec:	200040b8 	strhcs	r4, [r0], -r8

000003f0 <init_systick>:
     3f0:	b480      	push	{r7}
     3f2:	b085      	sub	sp, #20
     3f4:	af00      	add	r7, sp, #0
     3f6:	6078      	str	r0, [r7, #4]
     3f8:	4b0c      	ldr	r3, [pc, #48]	; (42c <init_systick+0x3c>)
     3fa:	60fb      	str	r3, [r7, #12]
     3fc:	4b0c      	ldr	r3, [pc, #48]	; (430 <init_systick+0x40>)
     3fe:	60bb      	str	r3, [r7, #8]
     400:	68bb      	ldr	r3, [r7, #8]
     402:	22f0      	movs	r2, #240	; 0xf0
     404:	701a      	strb	r2, [r3, #0]
     406:	687b      	ldr	r3, [r7, #4]
     408:	f642 62e0 	movw	r2, #12000	; 0x2ee0
     40c:	fb02 f303 	mul.w	r3, r2, r3
     410:	1e5a      	subs	r2, r3, #1
     412:	68fb      	ldr	r3, [r7, #12]
     414:	605a      	str	r2, [r3, #4]
     416:	68fb      	ldr	r3, [r7, #12]
     418:	2200      	movs	r2, #0
     41a:	609a      	str	r2, [r3, #8]
     41c:	68fb      	ldr	r3, [r7, #12]
     41e:	2207      	movs	r2, #7
     420:	601a      	str	r2, [r3, #0]
     422:	3714      	adds	r7, #20
     424:	46bd      	mov	sp, r7
     426:	f85d 7b04 	ldr.w	r7, [sp], #4
     42a:	4770      	bx	lr
     42c:	e000e010 	and	lr, r0, r0, lsl r0
     430:	e000ed23 	and	lr, r0, r3, lsr #26

00000434 <systick_handler>:
     434:	b580      	push	{r7, lr}
     436:	af00      	add	r7, sp, #0
     438:	f000 fe36 	bl	10a8 <task_system_tick_handler>
     43c:	bd80      	pop	{r7, pc}
     43e:	bf00      	nop

00000440 <trigger_pend_sv>:
     440:	b480      	push	{r7}
     442:	af00      	add	r7, sp, #0
     444:	4b05      	ldr	r3, [pc, #20]	; (45c <trigger_pend_sv+0x1c>)
     446:	22ff      	movs	r2, #255	; 0xff
     448:	701a      	strb	r2, [r3, #0]
     44a:	4b05      	ldr	r3, [pc, #20]	; (460 <trigger_pend_sv+0x20>)
     44c:	f04f 5280 	mov.w	r2, #268435456	; 0x10000000
     450:	601a      	str	r2, [r3, #0]
     452:	46bd      	mov	sp, r7
     454:	f85d 7b04 	ldr.w	r7, [sp], #4
     458:	4770      	bx	lr
     45a:	bf00      	nop
     45c:	e000ed22 	and	lr, r0, r2, lsr #26
     460:	e000ed04 	and	lr, r0, r4, lsl #26

00000464 <send_char>:
     464:	b480      	push	{r7}
     466:	b083      	sub	sp, #12
     468:	af00      	add	r7, sp, #0
     46a:	6078      	str	r0, [r7, #4]
     46c:	4a05      	ldr	r2, [pc, #20]	; (484 <send_char+0x20>)
     46e:	687b      	ldr	r3, [r7, #4]
     470:	781b      	ldrb	r3, [r3, #0]
     472:	6013      	str	r3, [r2, #0]
     474:	687b      	ldr	r3, [r7, #4]
     476:	781b      	ldrb	r3, [r3, #0]
     478:	4618      	mov	r0, r3
     47a:	370c      	adds	r7, #12
     47c:	46bd      	mov	sp, r7
     47e:	f85d 7b04 	ldr.w	r7, [sp], #4
     482:	4770      	bx	lr
     484:	4000c000 	andmi	ip, r0, r0

00000488 <is_dec_asc>:
     488:	b480      	push	{r7}
     48a:	b085      	sub	sp, #20
     48c:	af00      	add	r7, sp, #0
     48e:	4603      	mov	r3, r0
     490:	71fb      	strb	r3, [r7, #7]
     492:	2300      	movs	r3, #0
     494:	60fb      	str	r3, [r7, #12]
     496:	e00b      	b.n	4b0 <is_dec_asc+0x28>
     498:	4a0a      	ldr	r2, [pc, #40]	; (4c4 <is_dec_asc+0x3c>)
     49a:	68fb      	ldr	r3, [r7, #12]
     49c:	4413      	add	r3, r2
     49e:	781b      	ldrb	r3, [r3, #0]
     4a0:	79fa      	ldrb	r2, [r7, #7]
     4a2:	429a      	cmp	r2, r3
     4a4:	d101      	bne.n	4aa <is_dec_asc+0x22>
     4a6:	2301      	movs	r3, #1
     4a8:	e006      	b.n	4b8 <is_dec_asc+0x30>
     4aa:	68fb      	ldr	r3, [r7, #12]
     4ac:	3301      	adds	r3, #1
     4ae:	60fb      	str	r3, [r7, #12]
     4b0:	68fb      	ldr	r3, [r7, #12]
     4b2:	2b09      	cmp	r3, #9
     4b4:	d9f0      	bls.n	498 <is_dec_asc+0x10>
     4b6:	2300      	movs	r3, #0
     4b8:	4618      	mov	r0, r3
     4ba:	3714      	adds	r7, #20
     4bc:	46bd      	mov	sp, r7
     4be:	f85d 7b04 	ldr.w	r7, [sp], #4
     4c2:	4770      	bx	lr
     4c4:	00001928 	andeq	r1, r0, r8, lsr #18

000004c8 <is_asc>:
     4c8:	b480      	push	{r7}
     4ca:	b083      	sub	sp, #12
     4cc:	af00      	add	r7, sp, #0
     4ce:	4603      	mov	r3, r0
     4d0:	71fb      	strb	r3, [r7, #7]
     4d2:	79fb      	ldrb	r3, [r7, #7]
     4d4:	2b40      	cmp	r3, #64	; 0x40
     4d6:	d902      	bls.n	4de <is_asc+0x16>
     4d8:	79fb      	ldrb	r3, [r7, #7]
     4da:	2b5a      	cmp	r3, #90	; 0x5a
     4dc:	d905      	bls.n	4ea <is_asc+0x22>
     4de:	79fb      	ldrb	r3, [r7, #7]
     4e0:	2b60      	cmp	r3, #96	; 0x60
     4e2:	d904      	bls.n	4ee <is_asc+0x26>
     4e4:	79fb      	ldrb	r3, [r7, #7]
     4e6:	2b7a      	cmp	r3, #122	; 0x7a
     4e8:	d801      	bhi.n	4ee <is_asc+0x26>
     4ea:	2301      	movs	r3, #1
     4ec:	e000      	b.n	4f0 <is_asc+0x28>
     4ee:	2300      	movs	r3, #0
     4f0:	4618      	mov	r0, r3
     4f2:	370c      	adds	r7, #12
     4f4:	46bd      	mov	sp, r7
     4f6:	f85d 7b04 	ldr.w	r7, [sp], #4
     4fa:	4770      	bx	lr

000004fc <is_hex_asc>:
     4fc:	b480      	push	{r7}
     4fe:	b083      	sub	sp, #12
     500:	af00      	add	r7, sp, #0
     502:	4603      	mov	r3, r0
     504:	71fb      	strb	r3, [r7, #7]
     506:	79fb      	ldrb	r3, [r7, #7]
     508:	2b2f      	cmp	r3, #47	; 0x2f
     50a:	d902      	bls.n	512 <is_hex_asc+0x16>
     50c:	79fb      	ldrb	r3, [r7, #7]
     50e:	2b39      	cmp	r3, #57	; 0x39
     510:	d90b      	bls.n	52a <is_hex_asc+0x2e>
     512:	79fb      	ldrb	r3, [r7, #7]
     514:	2b40      	cmp	r3, #64	; 0x40
     516:	d902      	bls.n	51e <is_hex_asc+0x22>
     518:	79fb      	ldrb	r3, [r7, #7]
     51a:	2b46      	cmp	r3, #70	; 0x46
     51c:	d905      	bls.n	52a <is_hex_asc+0x2e>
     51e:	79fb      	ldrb	r3, [r7, #7]
     520:	2b60      	cmp	r3, #96	; 0x60
     522:	d904      	bls.n	52e <is_hex_asc+0x32>
     524:	79fb      	ldrb	r3, [r7, #7]
     526:	2b66      	cmp	r3, #102	; 0x66
     528:	d801      	bhi.n	52e <is_hex_asc+0x32>
     52a:	2301      	movs	r3, #1
     52c:	e000      	b.n	530 <is_hex_asc+0x34>
     52e:	2300      	movs	r3, #0
     530:	4618      	mov	r0, r3
     532:	370c      	adds	r7, #12
     534:	46bd      	mov	sp, r7
     536:	f85d 7b04 	ldr.w	r7, [sp], #4
     53a:	4770      	bx	lr

0000053c <printf_char>:
     53c:	b580      	push	{r7, lr}
     53e:	b084      	sub	sp, #16
     540:	af00      	add	r7, sp, #0
     542:	4603      	mov	r3, r0
     544:	71fb      	strb	r3, [r7, #7]
     546:	230d      	movs	r3, #13
     548:	73fb      	strb	r3, [r7, #15]
     54a:	2300      	movs	r3, #0
     54c:	73bb      	strb	r3, [r7, #14]
     54e:	79fb      	ldrb	r3, [r7, #7]
     550:	73bb      	strb	r3, [r7, #14]
     552:	f107 030e 	add.w	r3, r7, #14
     556:	4618      	mov	r0, r3
     558:	f7ff ff84 	bl	464 <send_char>
     55c:	7bbb      	ldrb	r3, [r7, #14]
     55e:	2b0a      	cmp	r3, #10
     560:	d104      	bne.n	56c <printf_char+0x30>
     562:	f107 030f 	add.w	r3, r7, #15
     566:	4618      	mov	r0, r3
     568:	f7ff ff7c 	bl	464 <send_char>
     56c:	2300      	movs	r3, #0
     56e:	4618      	mov	r0, r3
     570:	3710      	adds	r7, #16
     572:	46bd      	mov	sp, r7
     574:	bd80      	pop	{r7, pc}
     576:	bf00      	nop

00000578 <printf_str>:
     578:	b580      	push	{r7, lr}
     57a:	b082      	sub	sp, #8
     57c:	af00      	add	r7, sp, #0
     57e:	6078      	str	r0, [r7, #4]
     580:	e007      	b.n	592 <printf_str+0x1a>
     582:	687b      	ldr	r3, [r7, #4]
     584:	781b      	ldrb	r3, [r3, #0]
     586:	4618      	mov	r0, r3
     588:	f7ff ffd8 	bl	53c <printf_char>
     58c:	687b      	ldr	r3, [r7, #4]
     58e:	3301      	adds	r3, #1
     590:	607b      	str	r3, [r7, #4]
     592:	687b      	ldr	r3, [r7, #4]
     594:	2b00      	cmp	r3, #0
     596:	d003      	beq.n	5a0 <printf_str+0x28>
     598:	687b      	ldr	r3, [r7, #4]
     59a:	781b      	ldrb	r3, [r3, #0]
     59c:	2b00      	cmp	r3, #0
     59e:	d1f0      	bne.n	582 <printf_str+0xa>
     5a0:	2300      	movs	r3, #0
     5a2:	4618      	mov	r0, r3
     5a4:	3708      	adds	r7, #8
     5a6:	46bd      	mov	sp, r7
     5a8:	bd80      	pop	{r7, pc}
     5aa:	bf00      	nop

000005ac <printf_hex>:
     5ac:	b580      	push	{r7, lr}
     5ae:	b084      	sub	sp, #16
     5b0:	af00      	add	r7, sp, #0
     5b2:	6078      	str	r0, [r7, #4]
     5b4:	6039      	str	r1, [r7, #0]
     5b6:	2300      	movs	r3, #0
     5b8:	60fb      	str	r3, [r7, #12]
     5ba:	2300      	movs	r3, #0
     5bc:	72fb      	strb	r3, [r7, #11]
     5be:	2300      	movs	r3, #0
     5c0:	72bb      	strb	r3, [r7, #10]
     5c2:	683b      	ldr	r3, [r7, #0]
     5c4:	2b08      	cmp	r3, #8
     5c6:	d802      	bhi.n	5ce <printf_hex+0x22>
     5c8:	683b      	ldr	r3, [r7, #0]
     5ca:	2b00      	cmp	r3, #0
     5cc:	d101      	bne.n	5d2 <printf_hex+0x26>
     5ce:	2308      	movs	r3, #8
     5d0:	603b      	str	r3, [r7, #0]
     5d2:	683b      	ldr	r3, [r7, #0]
     5d4:	3b01      	subs	r3, #1
     5d6:	60fb      	str	r3, [r7, #12]
     5d8:	e017      	b.n	60a <printf_hex+0x5e>
     5da:	68fb      	ldr	r3, [r7, #12]
     5dc:	009b      	lsls	r3, r3, #2
     5de:	220f      	movs	r2, #15
     5e0:	fa02 f303 	lsl.w	r3, r2, r3
     5e4:	461a      	mov	r2, r3
     5e6:	687b      	ldr	r3, [r7, #4]
     5e8:	401a      	ands	r2, r3
     5ea:	68fb      	ldr	r3, [r7, #12]
     5ec:	009b      	lsls	r3, r3, #2
     5ee:	fa22 f303 	lsr.w	r3, r2, r3
     5f2:	72fb      	strb	r3, [r7, #11]
     5f4:	7afb      	ldrb	r3, [r7, #11]
     5f6:	4a09      	ldr	r2, [pc, #36]	; (61c <printf_hex+0x70>)
     5f8:	5cd3      	ldrb	r3, [r2, r3]
     5fa:	72bb      	strb	r3, [r7, #10]
     5fc:	7abb      	ldrb	r3, [r7, #10]
     5fe:	4618      	mov	r0, r3
     600:	f7ff ff9c 	bl	53c <printf_char>
     604:	68fb      	ldr	r3, [r7, #12]
     606:	3b01      	subs	r3, #1
     608:	60fb      	str	r3, [r7, #12]
     60a:	68fb      	ldr	r3, [r7, #12]
     60c:	2b00      	cmp	r3, #0
     60e:	dae4      	bge.n	5da <printf_hex+0x2e>
     610:	2300      	movs	r3, #0
     612:	4618      	mov	r0, r3
     614:	3710      	adds	r7, #16
     616:	46bd      	mov	sp, r7
     618:	bd80      	pop	{r7, pc}
     61a:	bf00      	nop
     61c:	00001928 	andeq	r1, r0, r8, lsr #18

00000620 <printf_hex_upper>:
     620:	b580      	push	{r7, lr}
     622:	b084      	sub	sp, #16
     624:	af00      	add	r7, sp, #0
     626:	6078      	str	r0, [r7, #4]
     628:	6039      	str	r1, [r7, #0]
     62a:	2300      	movs	r3, #0
     62c:	60fb      	str	r3, [r7, #12]
     62e:	2300      	movs	r3, #0
     630:	72fb      	strb	r3, [r7, #11]
     632:	2300      	movs	r3, #0
     634:	72bb      	strb	r3, [r7, #10]
     636:	683b      	ldr	r3, [r7, #0]
     638:	2b08      	cmp	r3, #8
     63a:	d802      	bhi.n	642 <printf_hex_upper+0x22>
     63c:	683b      	ldr	r3, [r7, #0]
     63e:	2b00      	cmp	r3, #0
     640:	d101      	bne.n	646 <printf_hex_upper+0x26>
     642:	2308      	movs	r3, #8
     644:	603b      	str	r3, [r7, #0]
     646:	683b      	ldr	r3, [r7, #0]
     648:	3b01      	subs	r3, #1
     64a:	60fb      	str	r3, [r7, #12]
     64c:	e017      	b.n	67e <printf_hex_upper+0x5e>
     64e:	68fb      	ldr	r3, [r7, #12]
     650:	009b      	lsls	r3, r3, #2
     652:	220f      	movs	r2, #15
     654:	fa02 f303 	lsl.w	r3, r2, r3
     658:	461a      	mov	r2, r3
     65a:	687b      	ldr	r3, [r7, #4]
     65c:	401a      	ands	r2, r3
     65e:	68fb      	ldr	r3, [r7, #12]
     660:	009b      	lsls	r3, r3, #2
     662:	fa22 f303 	lsr.w	r3, r2, r3
     666:	72fb      	strb	r3, [r7, #11]
     668:	7afb      	ldrb	r3, [r7, #11]
     66a:	4a09      	ldr	r2, [pc, #36]	; (690 <printf_hex_upper+0x70>)
     66c:	5cd3      	ldrb	r3, [r2, r3]
     66e:	72bb      	strb	r3, [r7, #10]
     670:	7abb      	ldrb	r3, [r7, #10]
     672:	4618      	mov	r0, r3
     674:	f7ff ff62 	bl	53c <printf_char>
     678:	68fb      	ldr	r3, [r7, #12]
     67a:	3b01      	subs	r3, #1
     67c:	60fb      	str	r3, [r7, #12]
     67e:	68fb      	ldr	r3, [r7, #12]
     680:	2b00      	cmp	r3, #0
     682:	dae4      	bge.n	64e <printf_hex_upper+0x2e>
     684:	2300      	movs	r3, #0
     686:	4618      	mov	r0, r3
     688:	3710      	adds	r7, #16
     68a:	46bd      	mov	sp, r7
     68c:	bd80      	pop	{r7, pc}
     68e:	bf00      	nop
     690:	00001938 	andeq	r1, r0, r8, lsr r9

00000694 <printf_dec>:
     694:	b580      	push	{r7, lr}
     696:	b086      	sub	sp, #24
     698:	af00      	add	r7, sp, #0
     69a:	6078      	str	r0, [r7, #4]
     69c:	2300      	movs	r3, #0
     69e:	617b      	str	r3, [r7, #20]
     6a0:	2301      	movs	r3, #1
     6a2:	613b      	str	r3, [r7, #16]
     6a4:	2301      	movs	r3, #1
     6a6:	60fb      	str	r3, [r7, #12]
     6a8:	2300      	movs	r3, #0
     6aa:	72fb      	strb	r3, [r7, #11]
     6ac:	693b      	ldr	r3, [r7, #16]
     6ae:	00da      	lsls	r2, r3, #3
     6b0:	693b      	ldr	r3, [r7, #16]
     6b2:	005b      	lsls	r3, r3, #1
     6b4:	4413      	add	r3, r2
     6b6:	613b      	str	r3, [r7, #16]
     6b8:	697b      	ldr	r3, [r7, #20]
     6ba:	3301      	adds	r3, #1
     6bc:	617b      	str	r3, [r7, #20]
     6be:	693a      	ldr	r2, [r7, #16]
     6c0:	687b      	ldr	r3, [r7, #4]
     6c2:	429a      	cmp	r2, r3
     6c4:	d904      	bls.n	6d0 <printf_dec+0x3c>
     6c6:	bf00      	nop
     6c8:	697b      	ldr	r3, [r7, #20]
     6ca:	2b08      	cmp	r3, #8
     6cc:	d904      	bls.n	6d8 <printf_dec+0x44>
     6ce:	e000      	b.n	6d2 <printf_dec+0x3e>
     6d0:	e7ec      	b.n	6ac <printf_dec+0x18>
     6d2:	f04f 33ff 	mov.w	r3, #4294967295	; 0xffffffff
     6d6:	e10e      	b.n	8f6 <printf_dec+0x262>
     6d8:	e108      	b.n	8ec <printf_dec+0x258>
     6da:	697b      	ldr	r3, [r7, #20]
     6dc:	3b01      	subs	r3, #1
     6de:	4a88      	ldr	r2, [pc, #544]	; (900 <printf_dec+0x26c>)
     6e0:	f852 3023 	ldr.w	r3, [r2, r3, lsl #2]
     6e4:	00da      	lsls	r2, r3, #3
     6e6:	697b      	ldr	r3, [r7, #20]
     6e8:	3b01      	subs	r3, #1
     6ea:	4985      	ldr	r1, [pc, #532]	; (900 <printf_dec+0x26c>)
     6ec:	f851 3023 	ldr.w	r3, [r1, r3, lsl #2]
     6f0:	441a      	add	r2, r3
     6f2:	687b      	ldr	r3, [r7, #4]
     6f4:	429a      	cmp	r2, r3
     6f6:	d80f      	bhi.n	718 <printf_dec+0x84>
     6f8:	2309      	movs	r3, #9
     6fa:	613b      	str	r3, [r7, #16]
     6fc:	697b      	ldr	r3, [r7, #20]
     6fe:	3b01      	subs	r3, #1
     700:	4a7f      	ldr	r2, [pc, #508]	; (900 <printf_dec+0x26c>)
     702:	f852 3023 	ldr.w	r3, [r2, r3, lsl #2]
     706:	00da      	lsls	r2, r3, #3
     708:	697b      	ldr	r3, [r7, #20]
     70a:	3b01      	subs	r3, #1
     70c:	497c      	ldr	r1, [pc, #496]	; (900 <printf_dec+0x26c>)
     70e:	f851 3023 	ldr.w	r3, [r1, r3, lsl #2]
     712:	4413      	add	r3, r2
     714:	60fb      	str	r3, [r7, #12]
     716:	e0d9      	b.n	8cc <printf_dec+0x238>
     718:	697b      	ldr	r3, [r7, #20]
     71a:	3b01      	subs	r3, #1
     71c:	4a78      	ldr	r2, [pc, #480]	; (900 <printf_dec+0x26c>)
     71e:	f852 3023 	ldr.w	r3, [r2, r3, lsl #2]
     722:	00da      	lsls	r2, r3, #3
     724:	687b      	ldr	r3, [r7, #4]
     726:	429a      	cmp	r2, r3
     728:	d809      	bhi.n	73e <printf_dec+0xaa>
     72a:	2308      	movs	r3, #8
     72c:	613b      	str	r3, [r7, #16]
     72e:	697b      	ldr	r3, [r7, #20]
     730:	3b01      	subs	r3, #1
     732:	4a73      	ldr	r2, [pc, #460]	; (900 <printf_dec+0x26c>)
     734:	f852 3023 	ldr.w	r3, [r2, r3, lsl #2]
     738:	00db      	lsls	r3, r3, #3
     73a:	60fb      	str	r3, [r7, #12]
     73c:	e0c6      	b.n	8cc <printf_dec+0x238>
     73e:	697b      	ldr	r3, [r7, #20]
     740:	3b01      	subs	r3, #1
     742:	4a6f      	ldr	r2, [pc, #444]	; (900 <printf_dec+0x26c>)
     744:	f852 3023 	ldr.w	r3, [r2, r3, lsl #2]
     748:	009a      	lsls	r2, r3, #2
     74a:	697b      	ldr	r3, [r7, #20]
     74c:	3b01      	subs	r3, #1
     74e:	496c      	ldr	r1, [pc, #432]	; (900 <printf_dec+0x26c>)
     750:	f851 3023 	ldr.w	r3, [r1, r3, lsl #2]
     754:	005b      	lsls	r3, r3, #1
     756:	441a      	add	r2, r3
     758:	697b      	ldr	r3, [r7, #20]
     75a:	3b01      	subs	r3, #1
     75c:	4968      	ldr	r1, [pc, #416]	; (900 <printf_dec+0x26c>)
     75e:	f851 3023 	ldr.w	r3, [r1, r3, lsl #2]
     762:	441a      	add	r2, r3
     764:	687b      	ldr	r3, [r7, #4]
     766:	429a      	cmp	r2, r3
     768:	d816      	bhi.n	798 <printf_dec+0x104>
     76a:	2307      	movs	r3, #7
     76c:	613b      	str	r3, [r7, #16]
     76e:	697b      	ldr	r3, [r7, #20]
     770:	3b01      	subs	r3, #1
     772:	4a63      	ldr	r2, [pc, #396]	; (900 <printf_dec+0x26c>)
     774:	f852 3023 	ldr.w	r3, [r2, r3, lsl #2]
     778:	009a      	lsls	r2, r3, #2
     77a:	697b      	ldr	r3, [r7, #20]
     77c:	3b01      	subs	r3, #1
     77e:	4960      	ldr	r1, [pc, #384]	; (900 <printf_dec+0x26c>)
     780:	f851 3023 	ldr.w	r3, [r1, r3, lsl #2]
     784:	005b      	lsls	r3, r3, #1
     786:	441a      	add	r2, r3
     788:	697b      	ldr	r3, [r7, #20]
     78a:	3b01      	subs	r3, #1
     78c:	495c      	ldr	r1, [pc, #368]	; (900 <printf_dec+0x26c>)
     78e:	f851 3023 	ldr.w	r3, [r1, r3, lsl #2]
     792:	4413      	add	r3, r2
     794:	60fb      	str	r3, [r7, #12]
     796:	e099      	b.n	8cc <printf_dec+0x238>
     798:	697b      	ldr	r3, [r7, #20]
     79a:	3b01      	subs	r3, #1
     79c:	4a58      	ldr	r2, [pc, #352]	; (900 <printf_dec+0x26c>)
     79e:	f852 3023 	ldr.w	r3, [r2, r3, lsl #2]
     7a2:	009a      	lsls	r2, r3, #2
     7a4:	697b      	ldr	r3, [r7, #20]
     7a6:	3b01      	subs	r3, #1
     7a8:	4955      	ldr	r1, [pc, #340]	; (900 <printf_dec+0x26c>)
     7aa:	f851 3023 	ldr.w	r3, [r1, r3, lsl #2]
     7ae:	005b      	lsls	r3, r3, #1
     7b0:	441a      	add	r2, r3
     7b2:	687b      	ldr	r3, [r7, #4]
     7b4:	429a      	cmp	r2, r3
     7b6:	d810      	bhi.n	7da <printf_dec+0x146>
     7b8:	2306      	movs	r3, #6
     7ba:	613b      	str	r3, [r7, #16]
     7bc:	697b      	ldr	r3, [r7, #20]
     7be:	3b01      	subs	r3, #1
     7c0:	4a4f      	ldr	r2, [pc, #316]	; (900 <printf_dec+0x26c>)
     7c2:	f852 3023 	ldr.w	r3, [r2, r3, lsl #2]
     7c6:	009a      	lsls	r2, r3, #2
     7c8:	697b      	ldr	r3, [r7, #20]
     7ca:	3b01      	subs	r3, #1
     7cc:	494c      	ldr	r1, [pc, #304]	; (900 <printf_dec+0x26c>)
     7ce:	f851 3023 	ldr.w	r3, [r1, r3, lsl #2]
     7d2:	005b      	lsls	r3, r3, #1
     7d4:	4413      	add	r3, r2
     7d6:	60fb      	str	r3, [r7, #12]
     7d8:	e078      	b.n	8cc <printf_dec+0x238>
     7da:	697b      	ldr	r3, [r7, #20]
     7dc:	3b01      	subs	r3, #1
     7de:	4a48      	ldr	r2, [pc, #288]	; (900 <printf_dec+0x26c>)
     7e0:	f852 3023 	ldr.w	r3, [r2, r3, lsl #2]
     7e4:	009a      	lsls	r2, r3, #2
     7e6:	697b      	ldr	r3, [r7, #20]
     7e8:	3b01      	subs	r3, #1
     7ea:	4945      	ldr	r1, [pc, #276]	; (900 <printf_dec+0x26c>)
     7ec:	f851 3023 	ldr.w	r3, [r1, r3, lsl #2]
     7f0:	441a      	add	r2, r3
     7f2:	687b      	ldr	r3, [r7, #4]
     7f4:	429a      	cmp	r2, r3
     7f6:	d80f      	bhi.n	818 <printf_dec+0x184>
     7f8:	2305      	movs	r3, #5
     7fa:	613b      	str	r3, [r7, #16]
     7fc:	697b      	ldr	r3, [r7, #20]
     7fe:	3b01      	subs	r3, #1
     800:	4a3f      	ldr	r2, [pc, #252]	; (900 <printf_dec+0x26c>)
     802:	f852 3023 	ldr.w	r3, [r2, r3, lsl #2]
     806:	009a      	lsls	r2, r3, #2
     808:	697b      	ldr	r3, [r7, #20]
     80a:	3b01      	subs	r3, #1
     80c:	493c      	ldr	r1, [pc, #240]	; (900 <printf_dec+0x26c>)
     80e:	f851 3023 	ldr.w	r3, [r1, r3, lsl #2]
     812:	4413      	add	r3, r2
     814:	60fb      	str	r3, [r7, #12]
     816:	e059      	b.n	8cc <printf_dec+0x238>
     818:	697b      	ldr	r3, [r7, #20]
     81a:	3b01      	subs	r3, #1
     81c:	4a38      	ldr	r2, [pc, #224]	; (900 <printf_dec+0x26c>)
     81e:	f852 3023 	ldr.w	r3, [r2, r3, lsl #2]
     822:	009a      	lsls	r2, r3, #2
     824:	687b      	ldr	r3, [r7, #4]
     826:	429a      	cmp	r2, r3
     828:	d809      	bhi.n	83e <printf_dec+0x1aa>
     82a:	2304      	movs	r3, #4
     82c:	613b      	str	r3, [r7, #16]
     82e:	697b      	ldr	r3, [r7, #20]
     830:	3b01      	subs	r3, #1
     832:	4a33      	ldr	r2, [pc, #204]	; (900 <printf_dec+0x26c>)
     834:	f852 3023 	ldr.w	r3, [r2, r3, lsl #2]
     838:	009b      	lsls	r3, r3, #2
     83a:	60fb      	str	r3, [r7, #12]
     83c:	e046      	b.n	8cc <printf_dec+0x238>
     83e:	697b      	ldr	r3, [r7, #20]
     840:	3b01      	subs	r3, #1
     842:	4a2f      	ldr	r2, [pc, #188]	; (900 <printf_dec+0x26c>)
     844:	f852 3023 	ldr.w	r3, [r2, r3, lsl #2]
     848:	005a      	lsls	r2, r3, #1
     84a:	697b      	ldr	r3, [r7, #20]
     84c:	3b01      	subs	r3, #1
     84e:	492c      	ldr	r1, [pc, #176]	; (900 <printf_dec+0x26c>)
     850:	f851 3023 	ldr.w	r3, [r1, r3, lsl #2]
     854:	441a      	add	r2, r3
     856:	687b      	ldr	r3, [r7, #4]
     858:	429a      	cmp	r2, r3
     85a:	d80f      	bhi.n	87c <printf_dec+0x1e8>
     85c:	2303      	movs	r3, #3
     85e:	613b      	str	r3, [r7, #16]
     860:	697b      	ldr	r3, [r7, #20]
     862:	3b01      	subs	r3, #1
     864:	4a26      	ldr	r2, [pc, #152]	; (900 <printf_dec+0x26c>)
     866:	f852 3023 	ldr.w	r3, [r2, r3, lsl #2]
     86a:	005a      	lsls	r2, r3, #1
     86c:	697b      	ldr	r3, [r7, #20]
     86e:	3b01      	subs	r3, #1
     870:	4923      	ldr	r1, [pc, #140]	; (900 <printf_dec+0x26c>)
     872:	f851 3023 	ldr.w	r3, [r1, r3, lsl #2]
     876:	4413      	add	r3, r2
     878:	60fb      	str	r3, [r7, #12]
     87a:	e027      	b.n	8cc <printf_dec+0x238>
     87c:	697b      	ldr	r3, [r7, #20]
     87e:	3b01      	subs	r3, #1
     880:	4a1f      	ldr	r2, [pc, #124]	; (900 <printf_dec+0x26c>)
     882:	f852 3023 	ldr.w	r3, [r2, r3, lsl #2]
     886:	005a      	lsls	r2, r3, #1
     888:	687b      	ldr	r3, [r7, #4]
     88a:	429a      	cmp	r2, r3
     88c:	d809      	bhi.n	8a2 <printf_dec+0x20e>
     88e:	2302      	movs	r3, #2
     890:	613b      	str	r3, [r7, #16]
     892:	697b      	ldr	r3, [r7, #20]
     894:	3b01      	subs	r3, #1
     896:	4a1a      	ldr	r2, [pc, #104]	; (900 <printf_dec+0x26c>)
     898:	f852 3023 	ldr.w	r3, [r2, r3, lsl #2]
     89c:	005b      	lsls	r3, r3, #1
     89e:	60fb      	str	r3, [r7, #12]
     8a0:	e014      	b.n	8cc <printf_dec+0x238>
     8a2:	697b      	ldr	r3, [r7, #20]
     8a4:	3b01      	subs	r3, #1
     8a6:	4a16      	ldr	r2, [pc, #88]	; (900 <printf_dec+0x26c>)
     8a8:	f852 2023 	ldr.w	r2, [r2, r3, lsl #2]
     8ac:	687b      	ldr	r3, [r7, #4]
     8ae:	429a      	cmp	r2, r3
     8b0:	d808      	bhi.n	8c4 <printf_dec+0x230>
     8b2:	2301      	movs	r3, #1
     8b4:	613b      	str	r3, [r7, #16]
     8b6:	697b      	ldr	r3, [r7, #20]
     8b8:	3b01      	subs	r3, #1
     8ba:	4a11      	ldr	r2, [pc, #68]	; (900 <printf_dec+0x26c>)
     8bc:	f852 3023 	ldr.w	r3, [r2, r3, lsl #2]
     8c0:	60fb      	str	r3, [r7, #12]
     8c2:	e003      	b.n	8cc <printf_dec+0x238>
     8c4:	2300      	movs	r3, #0
     8c6:	613b      	str	r3, [r7, #16]
     8c8:	2300      	movs	r3, #0
     8ca:	60fb      	str	r3, [r7, #12]
     8cc:	4a0d      	ldr	r2, [pc, #52]	; (904 <printf_dec+0x270>)
     8ce:	693b      	ldr	r3, [r7, #16]
     8d0:	4413      	add	r3, r2
     8d2:	781b      	ldrb	r3, [r3, #0]
     8d4:	72fb      	strb	r3, [r7, #11]
     8d6:	7afb      	ldrb	r3, [r7, #11]
     8d8:	4618      	mov	r0, r3
     8da:	f7ff fe2f 	bl	53c <printf_char>
     8de:	697b      	ldr	r3, [r7, #20]
     8e0:	3b01      	subs	r3, #1
     8e2:	617b      	str	r3, [r7, #20]
     8e4:	687a      	ldr	r2, [r7, #4]
     8e6:	68fb      	ldr	r3, [r7, #12]
     8e8:	1ad3      	subs	r3, r2, r3
     8ea:	607b      	str	r3, [r7, #4]
     8ec:	697b      	ldr	r3, [r7, #20]
     8ee:	2b00      	cmp	r3, #0
     8f0:	f47f aef3 	bne.w	6da <printf_dec+0x46>
     8f4:	2300      	movs	r3, #0
     8f6:	4618      	mov	r0, r3
     8f8:	3718      	adds	r7, #24
     8fa:	46bd      	mov	sp, r7
     8fc:	bd80      	pop	{r7, pc}
     8fe:	bf00      	nop
     900:	00001948 	andeq	r1, r0, r8, asr #18
     904:	00001928 	andeq	r1, r0, r8, lsr #18

00000908 <no_printk>:
     908:	b40f      	push	{r0, r1, r2, r3}
     90a:	b480      	push	{r7}
     90c:	af00      	add	r7, sp, #0
     90e:	46bd      	mov	sp, r7
     910:	f85d 7b04 	ldr.w	r7, [sp], #4
     914:	b004      	add	sp, #16
     916:	4770      	bx	lr

00000918 <printk>:
     918:	b40f      	push	{r0, r1, r2, r3}
     91a:	b580      	push	{r7, lr}
     91c:	b084      	sub	sp, #16
     91e:	af00      	add	r7, sp, #0
     920:	2300      	movs	r3, #0
     922:	60fb      	str	r3, [r7, #12]
     924:	f107 031c 	add.w	r3, r7, #28
     928:	607b      	str	r3, [r7, #4]
     92a:	69bb      	ldr	r3, [r7, #24]
     92c:	781b      	ldrb	r3, [r3, #0]
     92e:	72fb      	strb	r3, [r7, #11]
     930:	7afb      	ldrb	r3, [r7, #11]
     932:	2b25      	cmp	r3, #37	; 0x25
     934:	d004      	beq.n	940 <printk+0x28>
     936:	7afb      	ldrb	r3, [r7, #11]
     938:	4618      	mov	r0, r3
     93a:	f7ff fdff 	bl	53c <printf_char>
     93e:	e09f      	b.n	a80 <printk+0x168>
     940:	69bb      	ldr	r3, [r7, #24]
     942:	3301      	adds	r3, #1
     944:	61bb      	str	r3, [r7, #24]
     946:	69bb      	ldr	r3, [r7, #24]
     948:	781b      	ldrb	r3, [r3, #0]
     94a:	72fb      	strb	r3, [r7, #11]
     94c:	7afb      	ldrb	r3, [r7, #11]
     94e:	2b64      	cmp	r3, #100	; 0x64
     950:	d00b      	beq.n	96a <printk+0x52>
     952:	7afb      	ldrb	r3, [r7, #11]
     954:	2b78      	cmp	r3, #120	; 0x78
     956:	d008      	beq.n	96a <printk+0x52>
     958:	7afb      	ldrb	r3, [r7, #11]
     95a:	2b58      	cmp	r3, #88	; 0x58
     95c:	d005      	beq.n	96a <printk+0x52>
     95e:	7afb      	ldrb	r3, [r7, #11]
     960:	2b73      	cmp	r3, #115	; 0x73
     962:	d002      	beq.n	96a <printk+0x52>
     964:	7afb      	ldrb	r3, [r7, #11]
     966:	2b63      	cmp	r3, #99	; 0x63
     968:	d114      	bne.n	994 <printk+0x7c>
     96a:	7afb      	ldrb	r3, [r7, #11]
     96c:	2b78      	cmp	r3, #120	; 0x78
     96e:	d002      	beq.n	976 <printk+0x5e>
     970:	7afb      	ldrb	r3, [r7, #11]
     972:	2b58      	cmp	r3, #88	; 0x58
     974:	d10d      	bne.n	992 <printk+0x7a>
     976:	69bb      	ldr	r3, [r7, #24]
     978:	3b01      	subs	r3, #1
     97a:	781b      	ldrb	r3, [r3, #0]
     97c:	2b25      	cmp	r3, #37	; 0x25
     97e:	d102      	bne.n	986 <printk+0x6e>
     980:	2308      	movs	r3, #8
     982:	60fb      	str	r3, [r7, #12]
     984:	e005      	b.n	992 <printk+0x7a>
     986:	69bb      	ldr	r3, [r7, #24]
     988:	3b01      	subs	r3, #1
     98a:	781b      	ldrb	r3, [r3, #0]
     98c:	3b30      	subs	r3, #48	; 0x30
     98e:	60fb      	str	r3, [r7, #12]
     990:	e001      	b.n	996 <printk+0x7e>
     992:	e000      	b.n	996 <printk+0x7e>
     994:	e7d4      	b.n	940 <printk+0x28>
     996:	7afb      	ldrb	r3, [r7, #11]
     998:	3b58      	subs	r3, #88	; 0x58
     99a:	2b20      	cmp	r3, #32
     99c:	d86f      	bhi.n	a7e <printk+0x166>
     99e:	a201      	add	r2, pc, #4	; (adr r2, 9a4 <printk+0x8c>)
     9a0:	f852 f023 	ldr.w	pc, [r2, r3, lsl #2]
     9a4:	00000a4b 	andeq	r0, r0, fp, asr #20
     9a8:	00000a7f 	andeq	r0, r0, pc, ror sl
     9ac:	00000a7f 	andeq	r0, r0, pc, ror sl
     9b0:	00000a7f 	andeq	r0, r0, pc, ror sl
     9b4:	00000a7f 	andeq	r0, r0, pc, ror sl
     9b8:	00000a7f 	andeq	r0, r0, pc, ror sl
     9bc:	00000a7f 	andeq	r0, r0, pc, ror sl
     9c0:	00000a7f 	andeq	r0, r0, pc, ror sl
     9c4:	00000a7f 	andeq	r0, r0, pc, ror sl
     9c8:	00000a7f 	andeq	r0, r0, pc, ror sl
     9cc:	00000a7f 	andeq	r0, r0, pc, ror sl
     9d0:	00000a6d 	andeq	r0, r0, sp, ror #20
     9d4:	00000a29 	andeq	r0, r0, r9, lsr #20
     9d8:	00000a7f 	andeq	r0, r0, pc, ror sl
     9dc:	00000a7f 	andeq	r0, r0, pc, ror sl
     9e0:	00000a7f 	andeq	r0, r0, pc, ror sl
     9e4:	00000a7f 	andeq	r0, r0, pc, ror sl
     9e8:	00000a7f 	andeq	r0, r0, pc, ror sl
     9ec:	00000a7f 	andeq	r0, r0, pc, ror sl
     9f0:	00000a7f 	andeq	r0, r0, pc, ror sl
     9f4:	00000a7f 	andeq	r0, r0, pc, ror sl
     9f8:	00000a7f 	andeq	r0, r0, pc, ror sl
     9fc:	00000a7f 	andeq	r0, r0, pc, ror sl
     a00:	00000a7f 	andeq	r0, r0, pc, ror sl
     a04:	00000a7f 	andeq	r0, r0, pc, ror sl
     a08:	00000a7f 	andeq	r0, r0, pc, ror sl
     a0c:	00000a7f 	andeq	r0, r0, pc, ror sl
     a10:	00000a5d 	andeq	r0, r0, sp, asr sl
     a14:	00000a7f 	andeq	r0, r0, pc, ror sl
     a18:	00000a7f 	andeq	r0, r0, pc, ror sl
     a1c:	00000a7f 	andeq	r0, r0, pc, ror sl
     a20:	00000a7f 	andeq	r0, r0, pc, ror sl
     a24:	00000a39 	andeq	r0, r0, r9, lsr sl
     a28:	687b      	ldr	r3, [r7, #4]
     a2a:	1d1a      	adds	r2, r3, #4
     a2c:	607a      	str	r2, [r7, #4]
     a2e:	681b      	ldr	r3, [r3, #0]
     a30:	4618      	mov	r0, r3
     a32:	f7ff fe2f 	bl	694 <printf_dec>
     a36:	e023      	b.n	a80 <printk+0x168>
     a38:	687b      	ldr	r3, [r7, #4]
     a3a:	1d1a      	adds	r2, r3, #4
     a3c:	607a      	str	r2, [r7, #4]
     a3e:	681b      	ldr	r3, [r3, #0]
     a40:	4618      	mov	r0, r3
     a42:	68f9      	ldr	r1, [r7, #12]
     a44:	f7ff fdb2 	bl	5ac <printf_hex>
     a48:	e01a      	b.n	a80 <printk+0x168>
     a4a:	687b      	ldr	r3, [r7, #4]
     a4c:	1d1a      	adds	r2, r3, #4
     a4e:	607a      	str	r2, [r7, #4]
     a50:	681b      	ldr	r3, [r3, #0]
     a52:	4618      	mov	r0, r3
     a54:	68f9      	ldr	r1, [r7, #12]
     a56:	f7ff fde3 	bl	620 <printf_hex_upper>
     a5a:	e011      	b.n	a80 <printk+0x168>
     a5c:	687b      	ldr	r3, [r7, #4]
     a5e:	1d1a      	adds	r2, r3, #4
     a60:	607a      	str	r2, [r7, #4]
     a62:	681b      	ldr	r3, [r3, #0]
     a64:	4618      	mov	r0, r3
     a66:	f7ff fd87 	bl	578 <printf_str>
     a6a:	e009      	b.n	a80 <printk+0x168>
     a6c:	687b      	ldr	r3, [r7, #4]
     a6e:	1d1a      	adds	r2, r3, #4
     a70:	607a      	str	r2, [r7, #4]
     a72:	681b      	ldr	r3, [r3, #0]
     a74:	b2db      	uxtb	r3, r3
     a76:	4618      	mov	r0, r3
     a78:	f7ff fd60 	bl	53c <printf_char>
     a7c:	e000      	b.n	a80 <printk+0x168>
     a7e:	bf00      	nop
     a80:	69bb      	ldr	r3, [r7, #24]
     a82:	3301      	adds	r3, #1
     a84:	61bb      	str	r3, [r7, #24]
     a86:	69bb      	ldr	r3, [r7, #24]
     a88:	781b      	ldrb	r3, [r3, #0]
     a8a:	2b00      	cmp	r3, #0
     a8c:	f47f af4d 	bne.w	92a <printk+0x12>
     a90:	3710      	adds	r7, #16
     a92:	46bd      	mov	sp, r7
     a94:	e8bd 4080 	ldmia.w	sp!, {r7, lr}
     a98:	b004      	add	sp, #16
     a9a:	4770      	bx	lr

00000a9c <memset>:
     a9c:	b480      	push	{r7}
     a9e:	b087      	sub	sp, #28
     aa0:	af00      	add	r7, sp, #0
     aa2:	60f8      	str	r0, [r7, #12]
     aa4:	460b      	mov	r3, r1
     aa6:	607a      	str	r2, [r7, #4]
     aa8:	72fb      	strb	r3, [r7, #11]
     aaa:	68fb      	ldr	r3, [r7, #12]
     aac:	617b      	str	r3, [r7, #20]
     aae:	2300      	movs	r3, #0
     ab0:	613b      	str	r3, [r7, #16]
     ab2:	2300      	movs	r3, #0
     ab4:	613b      	str	r3, [r7, #16]
     ab6:	e007      	b.n	ac8 <memset+0x2c>
     ab8:	693b      	ldr	r3, [r7, #16]
     aba:	3301      	adds	r3, #1
     abc:	613b      	str	r3, [r7, #16]
     abe:	697b      	ldr	r3, [r7, #20]
     ac0:	1c5a      	adds	r2, r3, #1
     ac2:	617a      	str	r2, [r7, #20]
     ac4:	7afa      	ldrb	r2, [r7, #11]
     ac6:	701a      	strb	r2, [r3, #0]
     ac8:	693a      	ldr	r2, [r7, #16]
     aca:	687b      	ldr	r3, [r7, #4]
     acc:	429a      	cmp	r2, r3
     ace:	d3f3      	bcc.n	ab8 <memset+0x1c>
     ad0:	2300      	movs	r3, #0
     ad2:	4618      	mov	r0, r3
     ad4:	371c      	adds	r7, #28
     ad6:	46bd      	mov	sp, r7
     ad8:	f85d 7b04 	ldr.w	r7, [sp], #4
     adc:	4770      	bx	lr
     ade:	bf00      	nop

00000ae0 <memcpy>:
     ae0:	b480      	push	{r7}
     ae2:	b089      	sub	sp, #36	; 0x24
     ae4:	af00      	add	r7, sp, #0
     ae6:	60f8      	str	r0, [r7, #12]
     ae8:	60b9      	str	r1, [r7, #8]
     aea:	607a      	str	r2, [r7, #4]
     aec:	68fb      	ldr	r3, [r7, #12]
     aee:	61fb      	str	r3, [r7, #28]
     af0:	68bb      	ldr	r3, [r7, #8]
     af2:	61bb      	str	r3, [r7, #24]
     af4:	2300      	movs	r3, #0
     af6:	617b      	str	r3, [r7, #20]
     af8:	2300      	movs	r3, #0
     afa:	617b      	str	r3, [r7, #20]
     afc:	e00a      	b.n	b14 <memcpy+0x34>
     afe:	697b      	ldr	r3, [r7, #20]
     b00:	3301      	adds	r3, #1
     b02:	617b      	str	r3, [r7, #20]
     b04:	69fb      	ldr	r3, [r7, #28]
     b06:	1c5a      	adds	r2, r3, #1
     b08:	61fa      	str	r2, [r7, #28]
     b0a:	69ba      	ldr	r2, [r7, #24]
     b0c:	1c51      	adds	r1, r2, #1
     b0e:	61b9      	str	r1, [r7, #24]
     b10:	7812      	ldrb	r2, [r2, #0]
     b12:	701a      	strb	r2, [r3, #0]
     b14:	697a      	ldr	r2, [r7, #20]
     b16:	687b      	ldr	r3, [r7, #4]
     b18:	429a      	cmp	r2, r3
     b1a:	d3f0      	bcc.n	afe <memcpy+0x1e>
     b1c:	2300      	movs	r3, #0
     b1e:	4618      	mov	r0, r3
     b20:	3724      	adds	r7, #36	; 0x24
     b22:	46bd      	mov	sp, r7
     b24:	f85d 7b04 	ldr.w	r7, [sp], #4
     b28:	4770      	bx	lr
     b2a:	bf00      	nop

00000b2c <memcmp>:
     b2c:	b480      	push	{r7}
     b2e:	b089      	sub	sp, #36	; 0x24
     b30:	af00      	add	r7, sp, #0
     b32:	60f8      	str	r0, [r7, #12]
     b34:	60b9      	str	r1, [r7, #8]
     b36:	607a      	str	r2, [r7, #4]
     b38:	68fb      	ldr	r3, [r7, #12]
     b3a:	61fb      	str	r3, [r7, #28]
     b3c:	68bb      	ldr	r3, [r7, #8]
     b3e:	61bb      	str	r3, [r7, #24]
     b40:	2300      	movs	r3, #0
     b42:	617b      	str	r3, [r7, #20]
     b44:	2300      	movs	r3, #0
     b46:	617b      	str	r3, [r7, #20]
     b48:	e00f      	b.n	b6a <memcmp+0x3e>
     b4a:	69fb      	ldr	r3, [r7, #28]
     b4c:	781a      	ldrb	r2, [r3, #0]
     b4e:	69bb      	ldr	r3, [r7, #24]
     b50:	781b      	ldrb	r3, [r3, #0]
     b52:	429a      	cmp	r2, r3
     b54:	d000      	beq.n	b58 <memcmp+0x2c>
     b56:	e00c      	b.n	b72 <memcmp+0x46>
     b58:	697b      	ldr	r3, [r7, #20]
     b5a:	3301      	adds	r3, #1
     b5c:	617b      	str	r3, [r7, #20]
     b5e:	69fb      	ldr	r3, [r7, #28]
     b60:	3301      	adds	r3, #1
     b62:	61fb      	str	r3, [r7, #28]
     b64:	69bb      	ldr	r3, [r7, #24]
     b66:	3301      	adds	r3, #1
     b68:	61bb      	str	r3, [r7, #24]
     b6a:	697a      	ldr	r2, [r7, #20]
     b6c:	687b      	ldr	r3, [r7, #4]
     b6e:	429a      	cmp	r2, r3
     b70:	d3eb      	bcc.n	b4a <memcmp+0x1e>
     b72:	697a      	ldr	r2, [r7, #20]
     b74:	687b      	ldr	r3, [r7, #4]
     b76:	429a      	cmp	r2, r3
     b78:	d201      	bcs.n	b7e <memcmp+0x52>
     b7a:	2301      	movs	r3, #1
     b7c:	e000      	b.n	b80 <memcmp+0x54>
     b7e:	2300      	movs	r3, #0
     b80:	4618      	mov	r0, r3
     b82:	3724      	adds	r7, #36	; 0x24
     b84:	46bd      	mov	sp, r7
     b86:	f85d 7b04 	ldr.w	r7, [sp], #4
     b8a:	4770      	bx	lr

00000b8c <strcmp>:
     b8c:	b480      	push	{r7}
     b8e:	b085      	sub	sp, #20
     b90:	af00      	add	r7, sp, #0
     b92:	6078      	str	r0, [r7, #4]
     b94:	6039      	str	r1, [r7, #0]
     b96:	687b      	ldr	r3, [r7, #4]
     b98:	60fb      	str	r3, [r7, #12]
     b9a:	683b      	ldr	r3, [r7, #0]
     b9c:	60bb      	str	r3, [r7, #8]
     b9e:	e005      	b.n	bac <strcmp+0x20>
     ba0:	68fb      	ldr	r3, [r7, #12]
     ba2:	3301      	adds	r3, #1
     ba4:	60fb      	str	r3, [r7, #12]
     ba6:	68bb      	ldr	r3, [r7, #8]
     ba8:	3301      	adds	r3, #1
     baa:	60bb      	str	r3, [r7, #8]
     bac:	68fb      	ldr	r3, [r7, #12]
     bae:	781b      	ldrb	r3, [r3, #0]
     bb0:	2b00      	cmp	r3, #0
     bb2:	d009      	beq.n	bc8 <strcmp+0x3c>
     bb4:	68bb      	ldr	r3, [r7, #8]
     bb6:	781b      	ldrb	r3, [r3, #0]
     bb8:	2b00      	cmp	r3, #0
     bba:	d005      	beq.n	bc8 <strcmp+0x3c>
     bbc:	68fb      	ldr	r3, [r7, #12]
     bbe:	781a      	ldrb	r2, [r3, #0]
     bc0:	68bb      	ldr	r3, [r7, #8]
     bc2:	781b      	ldrb	r3, [r3, #0]
     bc4:	429a      	cmp	r2, r3
     bc6:	d0eb      	beq.n	ba0 <strcmp+0x14>
     bc8:	68fb      	ldr	r3, [r7, #12]
     bca:	781b      	ldrb	r3, [r3, #0]
     bcc:	461a      	mov	r2, r3
     bce:	68bb      	ldr	r3, [r7, #8]
     bd0:	781b      	ldrb	r3, [r3, #0]
     bd2:	1ad3      	subs	r3, r2, r3
     bd4:	4618      	mov	r0, r3
     bd6:	3714      	adds	r7, #20
     bd8:	46bd      	mov	sp, r7
     bda:	f85d 7b04 	ldr.w	r7, [sp], #4
     bde:	4770      	bx	lr

00000be0 <strncmp>:
     be0:	b480      	push	{r7}
     be2:	b089      	sub	sp, #36	; 0x24
     be4:	af00      	add	r7, sp, #0
     be6:	60f8      	str	r0, [r7, #12]
     be8:	60b9      	str	r1, [r7, #8]
     bea:	607a      	str	r2, [r7, #4]
     bec:	68fb      	ldr	r3, [r7, #12]
     bee:	61fb      	str	r3, [r7, #28]
     bf0:	68bb      	ldr	r3, [r7, #8]
     bf2:	61bb      	str	r3, [r7, #24]
     bf4:	2300      	movs	r3, #0
     bf6:	617b      	str	r3, [r7, #20]
     bf8:	e019      	b.n	c2e <strncmp+0x4e>
     bfa:	69fb      	ldr	r3, [r7, #28]
     bfc:	781a      	ldrb	r2, [r3, #0]
     bfe:	69bb      	ldr	r3, [r7, #24]
     c00:	781b      	ldrb	r3, [r3, #0]
     c02:	429a      	cmp	r2, r3
     c04:	d901      	bls.n	c0a <strncmp+0x2a>
     c06:	2301      	movs	r3, #1
     c08:	e016      	b.n	c38 <strncmp+0x58>
     c0a:	69fb      	ldr	r3, [r7, #28]
     c0c:	781a      	ldrb	r2, [r3, #0]
     c0e:	69bb      	ldr	r3, [r7, #24]
     c10:	781b      	ldrb	r3, [r3, #0]
     c12:	429a      	cmp	r2, r3
     c14:	d202      	bcs.n	c1c <strncmp+0x3c>
     c16:	f04f 33ff 	mov.w	r3, #4294967295	; 0xffffffff
     c1a:	e00d      	b.n	c38 <strncmp+0x58>
     c1c:	697b      	ldr	r3, [r7, #20]
     c1e:	3301      	adds	r3, #1
     c20:	617b      	str	r3, [r7, #20]
     c22:	69fb      	ldr	r3, [r7, #28]
     c24:	3301      	adds	r3, #1
     c26:	61fb      	str	r3, [r7, #28]
     c28:	69bb      	ldr	r3, [r7, #24]
     c2a:	3301      	adds	r3, #1
     c2c:	61bb      	str	r3, [r7, #24]
     c2e:	697a      	ldr	r2, [r7, #20]
     c30:	687b      	ldr	r3, [r7, #4]
     c32:	429a      	cmp	r2, r3
     c34:	d3e1      	bcc.n	bfa <strncmp+0x1a>
     c36:	2300      	movs	r3, #0
     c38:	4618      	mov	r0, r3
     c3a:	3724      	adds	r7, #36	; 0x24
     c3c:	46bd      	mov	sp, r7
     c3e:	f85d 7b04 	ldr.w	r7, [sp], #4
     c42:	4770      	bx	lr

00000c44 <strtoul>:
     c44:	b580      	push	{r7, lr}
     c46:	b086      	sub	sp, #24
     c48:	af00      	add	r7, sp, #0
     c4a:	6078      	str	r0, [r7, #4]
     c4c:	6039      	str	r1, [r7, #0]
     c4e:	687b      	ldr	r3, [r7, #4]
     c50:	617b      	str	r3, [r7, #20]
     c52:	230a      	movs	r3, #10
     c54:	613b      	str	r3, [r7, #16]
     c56:	2300      	movs	r3, #0
     c58:	60fb      	str	r3, [r7, #12]
     c5a:	2300      	movs	r3, #0
     c5c:	60bb      	str	r3, [r7, #8]
     c5e:	697b      	ldr	r3, [r7, #20]
     c60:	781b      	ldrb	r3, [r3, #0]
     c62:	2b30      	cmp	r3, #48	; 0x30
     c64:	d10e      	bne.n	c84 <strtoul+0x40>
     c66:	697b      	ldr	r3, [r7, #20]
     c68:	3301      	adds	r3, #1
     c6a:	781b      	ldrb	r3, [r3, #0]
     c6c:	2b78      	cmp	r3, #120	; 0x78
     c6e:	d004      	beq.n	c7a <strtoul+0x36>
     c70:	697b      	ldr	r3, [r7, #20]
     c72:	3301      	adds	r3, #1
     c74:	781b      	ldrb	r3, [r3, #0]
     c76:	2b58      	cmp	r3, #88	; 0x58
     c78:	d104      	bne.n	c84 <strtoul+0x40>
     c7a:	697b      	ldr	r3, [r7, #20]
     c7c:	3302      	adds	r3, #2
     c7e:	617b      	str	r3, [r7, #20]
     c80:	2310      	movs	r3, #16
     c82:	613b      	str	r3, [r7, #16]
     c84:	e046      	b.n	d14 <strtoul+0xd0>
     c86:	693b      	ldr	r3, [r7, #16]
     c88:	2b10      	cmp	r3, #16
     c8a:	d12a      	bne.n	ce2 <strtoul+0x9e>
     c8c:	697b      	ldr	r3, [r7, #20]
     c8e:	781b      	ldrb	r3, [r3, #0]
     c90:	4618      	mov	r0, r3
     c92:	f7ff fc33 	bl	4fc <is_hex_asc>
     c96:	4603      	mov	r3, r0
     c98:	2b00      	cmp	r3, #0
     c9a:	d102      	bne.n	ca2 <strtoul+0x5e>
     c9c:	f04f 33ff 	mov.w	r3, #4294967295	; 0xffffffff
     ca0:	e040      	b.n	d24 <strtoul+0xe0>
     ca2:	697b      	ldr	r3, [r7, #20]
     ca4:	781b      	ldrb	r3, [r3, #0]
     ca6:	2b2f      	cmp	r3, #47	; 0x2f
     ca8:	d908      	bls.n	cbc <strtoul+0x78>
     caa:	697b      	ldr	r3, [r7, #20]
     cac:	781b      	ldrb	r3, [r3, #0]
     cae:	2b39      	cmp	r3, #57	; 0x39
     cb0:	d804      	bhi.n	cbc <strtoul+0x78>
     cb2:	697b      	ldr	r3, [r7, #20]
     cb4:	781b      	ldrb	r3, [r3, #0]
     cb6:	3b30      	subs	r3, #48	; 0x30
     cb8:	60bb      	str	r3, [r7, #8]
     cba:	e011      	b.n	ce0 <strtoul+0x9c>
     cbc:	697b      	ldr	r3, [r7, #20]
     cbe:	781b      	ldrb	r3, [r3, #0]
     cc0:	2b60      	cmp	r3, #96	; 0x60
     cc2:	d908      	bls.n	cd6 <strtoul+0x92>
     cc4:	697b      	ldr	r3, [r7, #20]
     cc6:	781b      	ldrb	r3, [r3, #0]
     cc8:	2b66      	cmp	r3, #102	; 0x66
     cca:	d804      	bhi.n	cd6 <strtoul+0x92>
     ccc:	697b      	ldr	r3, [r7, #20]
     cce:	781b      	ldrb	r3, [r3, #0]
     cd0:	3b57      	subs	r3, #87	; 0x57
     cd2:	60bb      	str	r3, [r7, #8]
     cd4:	e004      	b.n	ce0 <strtoul+0x9c>
     cd6:	697b      	ldr	r3, [r7, #20]
     cd8:	781b      	ldrb	r3, [r3, #0]
     cda:	3b37      	subs	r3, #55	; 0x37
     cdc:	60bb      	str	r3, [r7, #8]
     cde:	e00f      	b.n	d00 <strtoul+0xbc>
     ce0:	e00e      	b.n	d00 <strtoul+0xbc>
     ce2:	697b      	ldr	r3, [r7, #20]
     ce4:	781b      	ldrb	r3, [r3, #0]
     ce6:	4618      	mov	r0, r3
     ce8:	f7ff fbce 	bl	488 <is_dec_asc>
     cec:	4603      	mov	r3, r0
     cee:	2b00      	cmp	r3, #0
     cf0:	d102      	bne.n	cf8 <strtoul+0xb4>
     cf2:	f06f 0301 	mvn.w	r3, #1
     cf6:	e015      	b.n	d24 <strtoul+0xe0>
     cf8:	697b      	ldr	r3, [r7, #20]
     cfa:	781b      	ldrb	r3, [r3, #0]
     cfc:	3b30      	subs	r3, #48	; 0x30
     cfe:	60bb      	str	r3, [r7, #8]
     d00:	68fb      	ldr	r3, [r7, #12]
     d02:	693a      	ldr	r2, [r7, #16]
     d04:	fb02 f203 	mul.w	r2, r2, r3
     d08:	68bb      	ldr	r3, [r7, #8]
     d0a:	4413      	add	r3, r2
     d0c:	60fb      	str	r3, [r7, #12]
     d0e:	697b      	ldr	r3, [r7, #20]
     d10:	3301      	adds	r3, #1
     d12:	617b      	str	r3, [r7, #20]
     d14:	697b      	ldr	r3, [r7, #20]
     d16:	781b      	ldrb	r3, [r3, #0]
     d18:	2b00      	cmp	r3, #0
     d1a:	d1b4      	bne.n	c86 <strtoul+0x42>
     d1c:	683b      	ldr	r3, [r7, #0]
     d1e:	68fa      	ldr	r2, [r7, #12]
     d20:	601a      	str	r2, [r3, #0]
     d22:	2300      	movs	r3, #0
     d24:	4618      	mov	r0, r3
     d26:	3718      	adds	r7, #24
     d28:	46bd      	mov	sp, r7
     d2a:	bd80      	pop	{r7, pc}

00000d2c <strtol>:
     d2c:	b580      	push	{r7, lr}
     d2e:	b084      	sub	sp, #16
     d30:	af00      	add	r7, sp, #0
     d32:	6078      	str	r0, [r7, #4]
     d34:	6039      	str	r1, [r7, #0]
     d36:	687b      	ldr	r3, [r7, #4]
     d38:	60fb      	str	r3, [r7, #12]
     d3a:	68fb      	ldr	r3, [r7, #12]
     d3c:	781b      	ldrb	r3, [r3, #0]
     d3e:	2b2d      	cmp	r3, #45	; 0x2d
     d40:	d10e      	bne.n	d60 <strtol+0x34>
     d42:	68fb      	ldr	r3, [r7, #12]
     d44:	3301      	adds	r3, #1
     d46:	60fb      	str	r3, [r7, #12]
     d48:	68f8      	ldr	r0, [r7, #12]
     d4a:	6839      	ldr	r1, [r7, #0]
     d4c:	f7ff ff7a 	bl	c44 <strtoul>
     d50:	60b8      	str	r0, [r7, #8]
     d52:	683b      	ldr	r3, [r7, #0]
     d54:	681b      	ldr	r3, [r3, #0]
     d56:	425a      	negs	r2, r3
     d58:	683b      	ldr	r3, [r7, #0]
     d5a:	601a      	str	r2, [r3, #0]
     d5c:	68bb      	ldr	r3, [r7, #8]
     d5e:	e004      	b.n	d6a <strtol+0x3e>
     d60:	68f8      	ldr	r0, [r7, #12]
     d62:	6839      	ldr	r1, [r7, #0]
     d64:	f7ff ff6e 	bl	c44 <strtoul>
     d68:	4603      	mov	r3, r0
     d6a:	4618      	mov	r0, r3
     d6c:	3710      	adds	r7, #16
     d6e:	46bd      	mov	sp, r7
     d70:	bd80      	pop	{r7, pc}
     d72:	bf00      	nop

00000d74 <strlen>:
     d74:	b480      	push	{r7}
     d76:	b085      	sub	sp, #20
     d78:	af00      	add	r7, sp, #0
     d7a:	6078      	str	r0, [r7, #4]
     d7c:	687b      	ldr	r3, [r7, #4]
     d7e:	60fb      	str	r3, [r7, #12]
     d80:	bf00      	nop
     d82:	68fb      	ldr	r3, [r7, #12]
     d84:	1c5a      	adds	r2, r3, #1
     d86:	60fa      	str	r2, [r7, #12]
     d88:	781b      	ldrb	r3, [r3, #0]
     d8a:	2b00      	cmp	r3, #0
     d8c:	d1f9      	bne.n	d82 <strlen+0xe>
     d8e:	68fa      	ldr	r2, [r7, #12]
     d90:	687b      	ldr	r3, [r7, #4]
     d92:	1ad3      	subs	r3, r2, r3
     d94:	4618      	mov	r0, r3
     d96:	3714      	adds	r7, #20
     d98:	46bd      	mov	sp, r7
     d9a:	f85d 7b04 	ldr.w	r7, [sp], #4
     d9e:	4770      	bx	lr

00000da0 <strcpy>:
     da0:	b480      	push	{r7}
     da2:	b085      	sub	sp, #20
     da4:	af00      	add	r7, sp, #0
     da6:	6078      	str	r0, [r7, #4]
     da8:	6039      	str	r1, [r7, #0]
     daa:	687b      	ldr	r3, [r7, #4]
     dac:	60fb      	str	r3, [r7, #12]
     dae:	683b      	ldr	r3, [r7, #0]
     db0:	60bb      	str	r3, [r7, #8]
     db2:	e009      	b.n	dc8 <strcpy+0x28>
     db4:	68bb      	ldr	r3, [r7, #8]
     db6:	781a      	ldrb	r2, [r3, #0]
     db8:	68fb      	ldr	r3, [r7, #12]
     dba:	701a      	strb	r2, [r3, #0]
     dbc:	68fb      	ldr	r3, [r7, #12]
     dbe:	3301      	adds	r3, #1
     dc0:	60fb      	str	r3, [r7, #12]
     dc2:	68bb      	ldr	r3, [r7, #8]
     dc4:	3301      	adds	r3, #1
     dc6:	60bb      	str	r3, [r7, #8]
     dc8:	68bb      	ldr	r3, [r7, #8]
     dca:	781b      	ldrb	r3, [r3, #0]
     dcc:	2b00      	cmp	r3, #0
     dce:	d1f1      	bne.n	db4 <strcpy+0x14>
     dd0:	68fb      	ldr	r3, [r7, #12]
     dd2:	2200      	movs	r2, #0
     dd4:	701a      	strb	r2, [r3, #0]
     dd6:	2300      	movs	r3, #0
     dd8:	4618      	mov	r0, r3
     dda:	3714      	adds	r7, #20
     ddc:	46bd      	mov	sp, r7
     dde:	f85d 7b04 	ldr.w	r7, [sp], #4
     de2:	4770      	bx	lr

00000de4 <reset_handler>:
     de4:	f04f 0021 	mov.w	r0, #33	; 0x21
     de8:	f3ef 8014 	mrs	r0, CONTROL
     dec:	f04f 0102 	mov.w	r1, #2
     df0:	ea40 0001 	orr.w	r0, r0, r1
     df4:	f380 8814 	msr	CONTROL, r0
     df8:	4817      	ldr	r0, [pc, #92]	; (e58 <enable_irq+0x6>)
     dfa:	4685      	mov	sp, r0
     dfc:	4817      	ldr	r0, [pc, #92]	; (e5c <enable_irq+0xa>)
     dfe:	4780      	blx	r0
     e00:	e7fe      	b.n	e00 <reset_handler+0x1c>

00000e02 <get_psp>:
     e02:	f3ef 8009 	mrs	r0, PSP
     e06:	47f0      	blx	lr

00000e08 <set_psp>:
     e08:	f380 8809 	msr	PSP, r0
     e0c:	47f0      	blx	lr

00000e0e <get_msp>:
     e0e:	f3ef 8008 	mrs	r0, MSP
     e12:	47f0      	blx	lr

00000e14 <get_control_reg>:
     e14:	f3ef 8014 	mrs	r0, CONTROL
     e18:	47f0      	blx	lr

00000e1a <pendsv_handler>:
     e1a:	f3ef 8009 	mrs	r0, PSP
     e1e:	b120      	cbz	r0, e2a <pendsv_handler_nosave>
     e20:	e920 0ff0 	stmdb	r0!, {r4, r5, r6, r7, r8, r9, sl, fp}
     e24:	490e      	ldr	r1, [pc, #56]	; (e60 <enable_irq+0xe>)
     e26:	6809      	ldr	r1, [r1, #0]
     e28:	6008      	str	r0, [r1, #0]

00000e2a <pendsv_handler_nosave>:
     e2a:	480d      	ldr	r0, [pc, #52]	; (e60 <enable_irq+0xe>)
     e2c:	490d      	ldr	r1, [pc, #52]	; (e64 <enable_irq+0x12>)
     e2e:	680a      	ldr	r2, [r1, #0]
     e30:	6002      	str	r2, [r0, #0]
     e32:	6810      	ldr	r0, [r2, #0]
     e34:	e8b0 0ff0 	ldmia.w	r0!, {r4, r5, r6, r7, r8, r9, sl, fp}
     e38:	f380 8809 	msr	PSP, r0
     e3c:	f04e 0e04 	orr.w	lr, lr, #4
     e40:	4770      	bx	lr

00000e42 <get_primask>:
     e42:	f3ef 8010 	mrs	r0, PRIMASK
     e46:	47f0      	blx	lr

00000e48 <set_primask>:
     e48:	f380 8810 	msr	PRIMASK, r0
     e4c:	47f0      	blx	lr

00000e4e <disable_irq>:
     e4e:	b672      	cpsid	i
     e50:	47f0      	blx	lr

00000e52 <enable_irq>:
     e52:	b662      	cpsie	i
     e54:	47f0      	blx	lr
     e56:	80000000 	andhi	r0, r0, r0
     e5a:	03652000 	cmneq	r5, #0
     e5e:	40bc0000 	adcsmi	r0, ip, r0
     e62:	40b82000 	adcsmi	r2, r8, r0
     e66:	b4802000 	strlt	r2, [r0], #0

00000e68 <idle_task_entry>:
     e68:	b480      	push	{r7}
     e6a:	b083      	sub	sp, #12
     e6c:	af00      	add	r7, sp, #0
     e6e:	6078      	str	r0, [r7, #4]
     e70:	e7fe      	b.n	e70 <idle_task_entry+0x8>
     e72:	bf00      	nop

00000e74 <task_init>:
     e74:	b580      	push	{r7, lr}
     e76:	b084      	sub	sp, #16
     e78:	af00      	add	r7, sp, #0
     e7a:	60f8      	str	r0, [r7, #12]
     e7c:	60b9      	str	r1, [r7, #8]
     e7e:	607a      	str	r2, [r7, #4]
     e80:	603b      	str	r3, [r7, #0]
     e82:	484a      	ldr	r0, [pc, #296]	; (fac <task_init+0x138>)
     e84:	494a      	ldr	r1, [pc, #296]	; (fb0 <task_init+0x13c>)
     e86:	f7ff fd47 	bl	918 <printk>
     e8a:	69bb      	ldr	r3, [r7, #24]
     e8c:	3b04      	subs	r3, #4
     e8e:	61bb      	str	r3, [r7, #24]
     e90:	69bb      	ldr	r3, [r7, #24]
     e92:	f04f 7280 	mov.w	r2, #16777216	; 0x1000000
     e96:	601a      	str	r2, [r3, #0]
     e98:	69bb      	ldr	r3, [r7, #24]
     e9a:	3b04      	subs	r3, #4
     e9c:	61bb      	str	r3, [r7, #24]
     e9e:	68ba      	ldr	r2, [r7, #8]
     ea0:	69bb      	ldr	r3, [r7, #24]
     ea2:	601a      	str	r2, [r3, #0]
     ea4:	69bb      	ldr	r3, [r7, #24]
     ea6:	3b04      	subs	r3, #4
     ea8:	61bb      	str	r3, [r7, #24]
     eaa:	69bb      	ldr	r3, [r7, #24]
     eac:	220e      	movs	r2, #14
     eae:	601a      	str	r2, [r3, #0]
     eb0:	69bb      	ldr	r3, [r7, #24]
     eb2:	3b04      	subs	r3, #4
     eb4:	61bb      	str	r3, [r7, #24]
     eb6:	69bb      	ldr	r3, [r7, #24]
     eb8:	220c      	movs	r2, #12
     eba:	601a      	str	r2, [r3, #0]
     ebc:	69bb      	ldr	r3, [r7, #24]
     ebe:	3b04      	subs	r3, #4
     ec0:	61bb      	str	r3, [r7, #24]
     ec2:	69bb      	ldr	r3, [r7, #24]
     ec4:	2203      	movs	r2, #3
     ec6:	601a      	str	r2, [r3, #0]
     ec8:	69bb      	ldr	r3, [r7, #24]
     eca:	3b04      	subs	r3, #4
     ecc:	61bb      	str	r3, [r7, #24]
     ece:	69bb      	ldr	r3, [r7, #24]
     ed0:	2202      	movs	r2, #2
     ed2:	601a      	str	r2, [r3, #0]
     ed4:	69bb      	ldr	r3, [r7, #24]
     ed6:	3b04      	subs	r3, #4
     ed8:	61bb      	str	r3, [r7, #24]
     eda:	69bb      	ldr	r3, [r7, #24]
     edc:	2201      	movs	r2, #1
     ede:	601a      	str	r2, [r3, #0]
     ee0:	69bb      	ldr	r3, [r7, #24]
     ee2:	3b04      	subs	r3, #4
     ee4:	61bb      	str	r3, [r7, #24]
     ee6:	687a      	ldr	r2, [r7, #4]
     ee8:	69bb      	ldr	r3, [r7, #24]
     eea:	601a      	str	r2, [r3, #0]
     eec:	69bb      	ldr	r3, [r7, #24]
     eee:	3b04      	subs	r3, #4
     ef0:	61bb      	str	r3, [r7, #24]
     ef2:	69bb      	ldr	r3, [r7, #24]
     ef4:	220b      	movs	r2, #11
     ef6:	601a      	str	r2, [r3, #0]
     ef8:	69bb      	ldr	r3, [r7, #24]
     efa:	3b04      	subs	r3, #4
     efc:	61bb      	str	r3, [r7, #24]
     efe:	69bb      	ldr	r3, [r7, #24]
     f00:	220a      	movs	r2, #10
     f02:	601a      	str	r2, [r3, #0]
     f04:	69bb      	ldr	r3, [r7, #24]
     f06:	3b04      	subs	r3, #4
     f08:	61bb      	str	r3, [r7, #24]
     f0a:	69bb      	ldr	r3, [r7, #24]
     f0c:	2209      	movs	r2, #9
     f0e:	601a      	str	r2, [r3, #0]
     f10:	69bb      	ldr	r3, [r7, #24]
     f12:	3b04      	subs	r3, #4
     f14:	61bb      	str	r3, [r7, #24]
     f16:	69bb      	ldr	r3, [r7, #24]
     f18:	2208      	movs	r2, #8
     f1a:	601a      	str	r2, [r3, #0]
     f1c:	69bb      	ldr	r3, [r7, #24]
     f1e:	3b04      	subs	r3, #4
     f20:	61bb      	str	r3, [r7, #24]
     f22:	69bb      	ldr	r3, [r7, #24]
     f24:	2207      	movs	r2, #7
     f26:	601a      	str	r2, [r3, #0]
     f28:	69bb      	ldr	r3, [r7, #24]
     f2a:	3b04      	subs	r3, #4
     f2c:	61bb      	str	r3, [r7, #24]
     f2e:	69bb      	ldr	r3, [r7, #24]
     f30:	2206      	movs	r2, #6
     f32:	601a      	str	r2, [r3, #0]
     f34:	69bb      	ldr	r3, [r7, #24]
     f36:	3b04      	subs	r3, #4
     f38:	61bb      	str	r3, [r7, #24]
     f3a:	69bb      	ldr	r3, [r7, #24]
     f3c:	2205      	movs	r2, #5
     f3e:	601a      	str	r2, [r3, #0]
     f40:	69bb      	ldr	r3, [r7, #24]
     f42:	3b04      	subs	r3, #4
     f44:	61bb      	str	r3, [r7, #24]
     f46:	69bb      	ldr	r3, [r7, #24]
     f48:	2204      	movs	r2, #4
     f4a:	601a      	str	r2, [r3, #0]
     f4c:	68fb      	ldr	r3, [r7, #12]
     f4e:	69ba      	ldr	r2, [r7, #24]
     f50:	601a      	str	r2, [r3, #0]
     f52:	68fb      	ldr	r3, [r7, #12]
     f54:	2200      	movs	r2, #0
     f56:	605a      	str	r2, [r3, #4]
     f58:	68fb      	ldr	r3, [r7, #12]
     f5a:	2200      	movs	r2, #0
     f5c:	615a      	str	r2, [r3, #20]
     f5e:	68fb      	ldr	r3, [r7, #12]
     f60:	330c      	adds	r3, #12
     f62:	4618      	mov	r0, r3
     f64:	f000 fb18 	bl	1598 <list_node_init>
     f68:	68fb      	ldr	r3, [r7, #12]
     f6a:	683a      	ldr	r2, [r7, #0]
     f6c:	609a      	str	r2, [r3, #8]
     f6e:	68fb      	ldr	r3, [r7, #12]
     f70:	220a      	movs	r2, #10
     f72:	621a      	str	r2, [r3, #32]
     f74:	68fb      	ldr	r3, [r7, #12]
     f76:	3318      	adds	r3, #24
     f78:	4618      	mov	r0, r3
     f7a:	f000 fb0d 	bl	1598 <list_node_init>
     f7e:	683a      	ldr	r2, [r7, #0]
     f80:	4613      	mov	r3, r2
     f82:	005b      	lsls	r3, r3, #1
     f84:	4413      	add	r3, r2
     f86:	009b      	lsls	r3, r3, #2
     f88:	4a0a      	ldr	r2, [pc, #40]	; (fb4 <task_init+0x140>)
     f8a:	441a      	add	r2, r3
     f8c:	68fb      	ldr	r3, [r7, #12]
     f8e:	3318      	adds	r3, #24
     f90:	4610      	mov	r0, r2
     f92:	4619      	mov	r1, r3
     f94:	f000 fbee 	bl	1774 <list_append_last>
     f98:	4807      	ldr	r0, [pc, #28]	; (fb8 <task_init+0x144>)
     f9a:	6839      	ldr	r1, [r7, #0]
     f9c:	f000 fa8c 	bl	14b8 <bitmap_set>
     fa0:	68fb      	ldr	r3, [r7, #12]
     fa2:	2200      	movs	r2, #0
     fa4:	625a      	str	r2, [r3, #36]	; 0x24
     fa6:	3710      	adds	r7, #16
     fa8:	46bd      	mov	sp, r7
     faa:	bd80      	pop	{r7, pc}
     fac:	0000196c 	andeq	r1, r0, ip, ror #18
     fb0:	00001970 	andeq	r1, r0, r0, ror r9
     fb4:	200040c0 	andcs	r4, r0, r0, asr #1
     fb8:	20001030 	andcs	r1, r0, r0, lsr r0

00000fbc <task_sched>:
     fbc:	b580      	push	{r7, lr}
     fbe:	b082      	sub	sp, #8
     fc0:	af00      	add	r7, sp, #0
     fc2:	f000 f921 	bl	1208 <task_enter_critical>
     fc6:	6078      	str	r0, [r7, #4]
     fc8:	4b0c      	ldr	r3, [pc, #48]	; (ffc <task_sched+0x40>)
     fca:	781b      	ldrb	r3, [r3, #0]
     fcc:	2b00      	cmp	r3, #0
     fce:	d000      	beq.n	fd2 <task_sched+0x16>
     fd0:	e00c      	b.n	fec <task_sched+0x30>
     fd2:	f000 f969 	bl	12a8 <task_highest_ready>
     fd6:	6038      	str	r0, [r7, #0]
     fd8:	4b09      	ldr	r3, [pc, #36]	; (1000 <task_sched+0x44>)
     fda:	681b      	ldr	r3, [r3, #0]
     fdc:	683a      	ldr	r2, [r7, #0]
     fde:	429a      	cmp	r2, r3
     fe0:	d004      	beq.n	fec <task_sched+0x30>
     fe2:	4a08      	ldr	r2, [pc, #32]	; (1004 <task_sched+0x48>)
     fe4:	683b      	ldr	r3, [r7, #0]
     fe6:	6013      	str	r3, [r2, #0]
     fe8:	f000 f80e 	bl	1008 <task_switch>
     fec:	6878      	ldr	r0, [r7, #4]
     fee:	f000 f919 	bl	1224 <task_exit_critical>
     ff2:	bf00      	nop
     ff4:	3708      	adds	r7, #8
     ff6:	46bd      	mov	sp, r7
     ff8:	bd80      	pop	{r7, pc}
     ffa:	bf00      	nop
     ffc:	2000102c 	andcs	r1, r0, ip, lsr #32
    1000:	200040bc 	strhcs	r4, [r0], -ip
    1004:	200040b8 	strhcs	r4, [r0], -r8

00001008 <task_switch>:
    1008:	b480      	push	{r7}
    100a:	af00      	add	r7, sp, #0
    100c:	4b03      	ldr	r3, [pc, #12]	; (101c <task_switch+0x14>)
    100e:	f04f 5280 	mov.w	r2, #268435456	; 0x10000000
    1012:	601a      	str	r2, [r3, #0]
    1014:	46bd      	mov	sp, r7
    1016:	f85d 7b04 	ldr.w	r7, [sp], #4
    101a:	4770      	bx	lr
    101c:	e000ed04 	and	lr, r0, r4, lsl #26

00001020 <task_run_first>:
    1020:	b580      	push	{r7, lr}
    1022:	af00      	add	r7, sp, #0
    1024:	4807      	ldr	r0, [pc, #28]	; (1044 <task_run_first+0x24>)
    1026:	4908      	ldr	r1, [pc, #32]	; (1048 <task_run_first+0x28>)
    1028:	f7ff fc76 	bl	918 <printk>
    102c:	2000      	movs	r0, #0
    102e:	f7ff feeb 	bl	e08 <set_psp>
    1032:	4b06      	ldr	r3, [pc, #24]	; (104c <task_run_first+0x2c>)
    1034:	22ff      	movs	r2, #255	; 0xff
    1036:	701a      	strb	r2, [r3, #0]
    1038:	4b05      	ldr	r3, [pc, #20]	; (1050 <task_run_first+0x30>)
    103a:	f04f 5280 	mov.w	r2, #268435456	; 0x10000000
    103e:	601a      	str	r2, [r3, #0]
    1040:	bd80      	pop	{r7, pc}
    1042:	bf00      	nop
    1044:	0000196c 	andeq	r1, r0, ip, ror #18
    1048:	0000197c 	andeq	r1, r0, ip, ror r9
    104c:	e000ed22 	and	lr, r0, r2, lsr #26
    1050:	e000ed04 	and	lr, r0, r4, lsl #26

00001054 <task_delay>:
    1054:	b580      	push	{r7, lr}
    1056:	b084      	sub	sp, #16
    1058:	af00      	add	r7, sp, #0
    105a:	6078      	str	r0, [r7, #4]
    105c:	f000 f8d4 	bl	1208 <task_enter_critical>
    1060:	60f8      	str	r0, [r7, #12]
    1062:	4b09      	ldr	r3, [pc, #36]	; (1088 <task_delay+0x34>)
    1064:	681b      	ldr	r3, [r3, #0]
    1066:	4618      	mov	r0, r3
    1068:	6879      	ldr	r1, [r7, #4]
    106a:	f000 f98d 	bl	1388 <task_delay_wait>
    106e:	4b06      	ldr	r3, [pc, #24]	; (1088 <task_delay+0x34>)
    1070:	681b      	ldr	r3, [r3, #0]
    1072:	4618      	mov	r0, r3
    1074:	f000 f954 	bl	1320 <task_unready>
    1078:	68f8      	ldr	r0, [r7, #12]
    107a:	f000 f8d3 	bl	1224 <task_exit_critical>
    107e:	f7ff ff9d 	bl	fbc <task_sched>
    1082:	3710      	adds	r7, #16
    1084:	46bd      	mov	sp, r7
    1086:	bd80      	pop	{r7, pc}
    1088:	200040bc 	strhcs	r4, [r0], -ip

0000108c <task_delay_s>:
    108c:	b580      	push	{r7, lr}
    108e:	b082      	sub	sp, #8
    1090:	af00      	add	r7, sp, #0
    1092:	6078      	str	r0, [r7, #4]
    1094:	687b      	ldr	r3, [r7, #4]
    1096:	2264      	movs	r2, #100	; 0x64
    1098:	fb02 f303 	mul.w	r3, r2, r3
    109c:	4618      	mov	r0, r3
    109e:	f7ff ffd9 	bl	1054 <task_delay>
    10a2:	3708      	adds	r7, #8
    10a4:	46bd      	mov	sp, r7
    10a6:	bd80      	pop	{r7, pc}

000010a8 <task_system_tick_handler>:
    10a8:	b580      	push	{r7, lr}
    10aa:	b084      	sub	sp, #16
    10ac:	af00      	add	r7, sp, #0
    10ae:	f000 f8ab 	bl	1208 <task_enter_critical>
    10b2:	60b8      	str	r0, [r7, #8]
    10b4:	4b31      	ldr	r3, [pc, #196]	; (117c <task_system_tick_handler+0xd4>)
    10b6:	607b      	str	r3, [r7, #4]
    10b8:	687b      	ldr	r3, [r7, #4]
    10ba:	685b      	ldr	r3, [r3, #4]
    10bc:	60fb      	str	r3, [r7, #12]
    10be:	2300      	movs	r3, #0
    10c0:	603b      	str	r3, [r7, #0]
    10c2:	e014      	b.n	10ee <task_system_tick_handler+0x46>
    10c4:	68fb      	ldr	r3, [r7, #12]
    10c6:	3b0c      	subs	r3, #12
    10c8:	603b      	str	r3, [r7, #0]
    10ca:	68fb      	ldr	r3, [r7, #12]
    10cc:	685b      	ldr	r3, [r3, #4]
    10ce:	60fb      	str	r3, [r7, #12]
    10d0:	683b      	ldr	r3, [r7, #0]
    10d2:	685b      	ldr	r3, [r3, #4]
    10d4:	1e5a      	subs	r2, r3, #1
    10d6:	683b      	ldr	r3, [r7, #0]
    10d8:	605a      	str	r2, [r3, #4]
    10da:	683b      	ldr	r3, [r7, #0]
    10dc:	685b      	ldr	r3, [r3, #4]
    10de:	2b00      	cmp	r3, #0
    10e0:	d105      	bne.n	10ee <task_system_tick_handler+0x46>
    10e2:	6838      	ldr	r0, [r7, #0]
    10e4:	f000 f96a 	bl	13bc <task_delay_wakeup>
    10e8:	6838      	ldr	r0, [r7, #0]
    10ea:	f000 f8f9 	bl	12e0 <task_ready>
    10ee:	68fa      	ldr	r2, [r7, #12]
    10f0:	687b      	ldr	r3, [r7, #4]
    10f2:	429a      	cmp	r2, r3
    10f4:	d1e6      	bne.n	10c4 <task_system_tick_handler+0x1c>
    10f6:	4b22      	ldr	r3, [pc, #136]	; (1180 <task_system_tick_handler+0xd8>)
    10f8:	681b      	ldr	r3, [r3, #0]
    10fa:	6a1a      	ldr	r2, [r3, #32]
    10fc:	3a01      	subs	r2, #1
    10fe:	621a      	str	r2, [r3, #32]
    1100:	6a1b      	ldr	r3, [r3, #32]
    1102:	2b00      	cmp	r3, #0
    1104:	d132      	bne.n	116c <task_system_tick_handler+0xc4>
    1106:	4b1e      	ldr	r3, [pc, #120]	; (1180 <task_system_tick_handler+0xd8>)
    1108:	681b      	ldr	r3, [r3, #0]
    110a:	689a      	ldr	r2, [r3, #8]
    110c:	4613      	mov	r3, r2
    110e:	005b      	lsls	r3, r3, #1
    1110:	4413      	add	r3, r2
    1112:	009b      	lsls	r3, r3, #2
    1114:	4a1b      	ldr	r2, [pc, #108]	; (1184 <task_system_tick_handler+0xdc>)
    1116:	4413      	add	r3, r2
    1118:	4618      	mov	r0, r3
    111a:	f000 fa61 	bl	15e0 <list_count>
    111e:	4603      	mov	r3, r0
    1120:	2b00      	cmp	r3, #0
    1122:	d023      	beq.n	116c <task_system_tick_handler+0xc4>
    1124:	4b16      	ldr	r3, [pc, #88]	; (1180 <task_system_tick_handler+0xd8>)
    1126:	681b      	ldr	r3, [r3, #0]
    1128:	689a      	ldr	r2, [r3, #8]
    112a:	4613      	mov	r3, r2
    112c:	005b      	lsls	r3, r3, #1
    112e:	4413      	add	r3, r2
    1130:	009b      	lsls	r3, r3, #2
    1132:	4a14      	ldr	r2, [pc, #80]	; (1184 <task_system_tick_handler+0xdc>)
    1134:	441a      	add	r2, r3
    1136:	4b12      	ldr	r3, [pc, #72]	; (1180 <task_system_tick_handler+0xd8>)
    1138:	681b      	ldr	r3, [r3, #0]
    113a:	3318      	adds	r3, #24
    113c:	4610      	mov	r0, r2
    113e:	4619      	mov	r1, r3
    1140:	f000 fb76 	bl	1830 <list_remove>
    1144:	4b0e      	ldr	r3, [pc, #56]	; (1180 <task_system_tick_handler+0xd8>)
    1146:	681b      	ldr	r3, [r3, #0]
    1148:	689a      	ldr	r2, [r3, #8]
    114a:	4613      	mov	r3, r2
    114c:	005b      	lsls	r3, r3, #1
    114e:	4413      	add	r3, r2
    1150:	009b      	lsls	r3, r3, #2
    1152:	4a0c      	ldr	r2, [pc, #48]	; (1184 <task_system_tick_handler+0xdc>)
    1154:	441a      	add	r2, r3
    1156:	4b0a      	ldr	r3, [pc, #40]	; (1180 <task_system_tick_handler+0xd8>)
    1158:	681b      	ldr	r3, [r3, #0]
    115a:	3318      	adds	r3, #24
    115c:	4610      	mov	r0, r2
    115e:	4619      	mov	r1, r3
    1160:	f000 fb08 	bl	1774 <list_append_last>
    1164:	4b06      	ldr	r3, [pc, #24]	; (1180 <task_system_tick_handler+0xd8>)
    1166:	681b      	ldr	r3, [r3, #0]
    1168:	220a      	movs	r2, #10
    116a:	621a      	str	r2, [r3, #32]
    116c:	68b8      	ldr	r0, [r7, #8]
    116e:	f000 f859 	bl	1224 <task_exit_critical>
    1172:	f7ff ff23 	bl	fbc <task_sched>
    1176:	3710      	adds	r7, #16
    1178:	46bd      	mov	sp, r7
    117a:	bd80      	pop	{r7, pc}
    117c:	20001034 	andcs	r1, r0, r4, lsr r0
    1180:	200040bc 	strhcs	r4, [r0], -ip
    1184:	200040c0 	andcs	r4, r0, r0, asr #1

00001188 <init_task_module>:
    1188:	b580      	push	{r7, lr}
    118a:	b084      	sub	sp, #16
    118c:	af02      	add	r7, sp, #8
    118e:	4b16      	ldr	r3, [pc, #88]	; (11e8 <init_task_module+0x60>)
    1190:	2200      	movs	r2, #0
    1192:	701a      	strb	r2, [r3, #0]
    1194:	2300      	movs	r3, #0
    1196:	607b      	str	r3, [r7, #4]
    1198:	4814      	ldr	r0, [pc, #80]	; (11ec <init_task_module+0x64>)
    119a:	f000 f979 	bl	1490 <bitmap_init>
    119e:	4814      	ldr	r0, [pc, #80]	; (11f0 <init_task_module+0x68>)
    11a0:	f000 fa0c 	bl	15bc <list_init>
    11a4:	2300      	movs	r3, #0
    11a6:	607b      	str	r3, [r7, #4]
    11a8:	e00c      	b.n	11c4 <init_task_module+0x3c>
    11aa:	687a      	ldr	r2, [r7, #4]
    11ac:	4613      	mov	r3, r2
    11ae:	005b      	lsls	r3, r3, #1
    11b0:	4413      	add	r3, r2
    11b2:	009b      	lsls	r3, r3, #2
    11b4:	4a0f      	ldr	r2, [pc, #60]	; (11f4 <init_task_module+0x6c>)
    11b6:	4413      	add	r3, r2
    11b8:	4618      	mov	r0, r3
    11ba:	f000 f9ff 	bl	15bc <list_init>
    11be:	687b      	ldr	r3, [r7, #4]
    11c0:	3301      	adds	r3, #1
    11c2:	607b      	str	r3, [r7, #4]
    11c4:	687b      	ldr	r3, [r7, #4]
    11c6:	2b1f      	cmp	r3, #31
    11c8:	d9ef      	bls.n	11aa <init_task_module+0x22>
    11ca:	4b0b      	ldr	r3, [pc, #44]	; (11f8 <init_task_module+0x70>)
    11cc:	9300      	str	r3, [sp, #0]
    11ce:	480b      	ldr	r0, [pc, #44]	; (11fc <init_task_module+0x74>)
    11d0:	490b      	ldr	r1, [pc, #44]	; (1200 <init_task_module+0x78>)
    11d2:	2200      	movs	r2, #0
    11d4:	231f      	movs	r3, #31
    11d6:	f7ff fe4d 	bl	e74 <task_init>
    11da:	4b0a      	ldr	r3, [pc, #40]	; (1204 <init_task_module+0x7c>)
    11dc:	4a07      	ldr	r2, [pc, #28]	; (11fc <init_task_module+0x74>)
    11de:	601a      	str	r2, [r3, #0]
    11e0:	3708      	adds	r7, #8
    11e2:	46bd      	mov	sp, r7
    11e4:	bd80      	pop	{r7, pc}
    11e6:	bf00      	nop
    11e8:	2000102c 	andcs	r1, r0, ip, lsr #32
    11ec:	20001030 	andcs	r1, r0, r0, lsr r0
    11f0:	20001034 	andcs	r1, r0, r4, lsr r0
    11f4:	200040c0 	andcs	r4, r0, r0, asr #1
    11f8:	2000102c 	andcs	r1, r0, ip, lsr #32
    11fc:	20000000 	andcs	r0, r0, r0
    1200:	00000e69 	andeq	r0, r0, r9, ror #28
    1204:	20000028 	andcs	r0, r0, r8, lsr #32

00001208 <task_enter_critical>:
    1208:	b580      	push	{r7, lr}
    120a:	b082      	sub	sp, #8
    120c:	af00      	add	r7, sp, #0
    120e:	f7ff fe18 	bl	e42 <get_primask>
    1212:	6078      	str	r0, [r7, #4]
    1214:	f7ff fe1b 	bl	e4e <disable_irq>
    1218:	687b      	ldr	r3, [r7, #4]
    121a:	4618      	mov	r0, r3
    121c:	3708      	adds	r7, #8
    121e:	46bd      	mov	sp, r7
    1220:	bd80      	pop	{r7, pc}
    1222:	bf00      	nop

00001224 <task_exit_critical>:
    1224:	b580      	push	{r7, lr}
    1226:	b082      	sub	sp, #8
    1228:	af00      	add	r7, sp, #0
    122a:	6078      	str	r0, [r7, #4]
    122c:	6878      	ldr	r0, [r7, #4]
    122e:	f7ff fe0b 	bl	e48 <set_primask>
    1232:	f7ff fe0e 	bl	e52 <enable_irq>
    1236:	3708      	adds	r7, #8
    1238:	46bd      	mov	sp, r7
    123a:	bd80      	pop	{r7, pc}

0000123c <task_sched_disable>:
    123c:	b580      	push	{r7, lr}
    123e:	b082      	sub	sp, #8
    1240:	af00      	add	r7, sp, #0
    1242:	f7ff ffe1 	bl	1208 <task_enter_critical>
    1246:	6078      	str	r0, [r7, #4]
    1248:	4b07      	ldr	r3, [pc, #28]	; (1268 <task_sched_disable+0x2c>)
    124a:	781b      	ldrb	r3, [r3, #0]
    124c:	2bff      	cmp	r3, #255	; 0xff
    124e:	d005      	beq.n	125c <task_sched_disable+0x20>
    1250:	4b05      	ldr	r3, [pc, #20]	; (1268 <task_sched_disable+0x2c>)
    1252:	781b      	ldrb	r3, [r3, #0]
    1254:	3301      	adds	r3, #1
    1256:	b2da      	uxtb	r2, r3
    1258:	4b03      	ldr	r3, [pc, #12]	; (1268 <task_sched_disable+0x2c>)
    125a:	701a      	strb	r2, [r3, #0]
    125c:	6878      	ldr	r0, [r7, #4]
    125e:	f7ff ffe1 	bl	1224 <task_exit_critical>
    1262:	3708      	adds	r7, #8
    1264:	46bd      	mov	sp, r7
    1266:	bd80      	pop	{r7, pc}
    1268:	2000102c 	andcs	r1, r0, ip, lsr #32

0000126c <task_sched_enable>:
    126c:	b580      	push	{r7, lr}
    126e:	b082      	sub	sp, #8
    1270:	af00      	add	r7, sp, #0
    1272:	f7ff ffc9 	bl	1208 <task_enter_critical>
    1276:	6078      	str	r0, [r7, #4]
    1278:	4b0a      	ldr	r3, [pc, #40]	; (12a4 <task_sched_enable+0x38>)
    127a:	781b      	ldrb	r3, [r3, #0]
    127c:	2b00      	cmp	r3, #0
    127e:	d00b      	beq.n	1298 <task_sched_enable+0x2c>
    1280:	4b08      	ldr	r3, [pc, #32]	; (12a4 <task_sched_enable+0x38>)
    1282:	781b      	ldrb	r3, [r3, #0]
    1284:	3b01      	subs	r3, #1
    1286:	b2da      	uxtb	r2, r3
    1288:	4b06      	ldr	r3, [pc, #24]	; (12a4 <task_sched_enable+0x38>)
    128a:	701a      	strb	r2, [r3, #0]
    128c:	4b05      	ldr	r3, [pc, #20]	; (12a4 <task_sched_enable+0x38>)
    128e:	781b      	ldrb	r3, [r3, #0]
    1290:	2b00      	cmp	r3, #0
    1292:	d101      	bne.n	1298 <task_sched_enable+0x2c>
    1294:	f7ff fe92 	bl	fbc <task_sched>
    1298:	6878      	ldr	r0, [r7, #4]
    129a:	f7ff ffc3 	bl	1224 <task_exit_critical>
    129e:	3708      	adds	r7, #8
    12a0:	46bd      	mov	sp, r7
    12a2:	bd80      	pop	{r7, pc}
    12a4:	2000102c 	andcs	r1, r0, ip, lsr #32

000012a8 <task_highest_ready>:
    12a8:	b580      	push	{r7, lr}
    12aa:	b082      	sub	sp, #8
    12ac:	af00      	add	r7, sp, #0
    12ae:	480a      	ldr	r0, [pc, #40]	; (12d8 <task_highest_ready+0x30>)
    12b0:	f000 f92a 	bl	1508 <bitmap_get_first_set>
    12b4:	6078      	str	r0, [r7, #4]
    12b6:	687a      	ldr	r2, [r7, #4]
    12b8:	4613      	mov	r3, r2
    12ba:	005b      	lsls	r3, r3, #1
    12bc:	4413      	add	r3, r2
    12be:	009b      	lsls	r3, r3, #2
    12c0:	4a06      	ldr	r2, [pc, #24]	; (12dc <task_highest_ready+0x34>)
    12c2:	4413      	add	r3, r2
    12c4:	4618      	mov	r0, r3
    12c6:	f000 f99f 	bl	1608 <list_head>
    12ca:	6038      	str	r0, [r7, #0]
    12cc:	683b      	ldr	r3, [r7, #0]
    12ce:	3b18      	subs	r3, #24
    12d0:	4618      	mov	r0, r3
    12d2:	3708      	adds	r7, #8
    12d4:	46bd      	mov	sp, r7
    12d6:	bd80      	pop	{r7, pc}
    12d8:	20001030 	andcs	r1, r0, r0, lsr r0
    12dc:	200040c0 	andcs	r4, r0, r0, asr #1

000012e0 <task_ready>:
    12e0:	b580      	push	{r7, lr}
    12e2:	b082      	sub	sp, #8
    12e4:	af00      	add	r7, sp, #0
    12e6:	6078      	str	r0, [r7, #4]
    12e8:	687b      	ldr	r3, [r7, #4]
    12ea:	689a      	ldr	r2, [r3, #8]
    12ec:	4613      	mov	r3, r2
    12ee:	005b      	lsls	r3, r3, #1
    12f0:	4413      	add	r3, r2
    12f2:	009b      	lsls	r3, r3, #2
    12f4:	4a08      	ldr	r2, [pc, #32]	; (1318 <task_ready+0x38>)
    12f6:	441a      	add	r2, r3
    12f8:	687b      	ldr	r3, [r7, #4]
    12fa:	3318      	adds	r3, #24
    12fc:	4610      	mov	r0, r2
    12fe:	4619      	mov	r1, r3
    1300:	f000 fa38 	bl	1774 <list_append_last>
    1304:	687b      	ldr	r3, [r7, #4]
    1306:	689b      	ldr	r3, [r3, #8]
    1308:	4804      	ldr	r0, [pc, #16]	; (131c <task_ready+0x3c>)
    130a:	4619      	mov	r1, r3
    130c:	f000 f8d4 	bl	14b8 <bitmap_set>
    1310:	3708      	adds	r7, #8
    1312:	46bd      	mov	sp, r7
    1314:	bd80      	pop	{r7, pc}
    1316:	bf00      	nop
    1318:	200040c0 	andcs	r4, r0, r0, asr #1
    131c:	20001030 	andcs	r1, r0, r0, lsr r0

00001320 <task_unready>:
    1320:	b580      	push	{r7, lr}
    1322:	b082      	sub	sp, #8
    1324:	af00      	add	r7, sp, #0
    1326:	6078      	str	r0, [r7, #4]
    1328:	687b      	ldr	r3, [r7, #4]
    132a:	689a      	ldr	r2, [r3, #8]
    132c:	4613      	mov	r3, r2
    132e:	005b      	lsls	r3, r3, #1
    1330:	4413      	add	r3, r2
    1332:	009b      	lsls	r3, r3, #2
    1334:	4a12      	ldr	r2, [pc, #72]	; (1380 <task_unready+0x60>)
    1336:	441a      	add	r2, r3
    1338:	687b      	ldr	r3, [r7, #4]
    133a:	3318      	adds	r3, #24
    133c:	4610      	mov	r0, r2
    133e:	4619      	mov	r1, r3
    1340:	f000 fa76 	bl	1830 <list_remove>
    1344:	687b      	ldr	r3, [r7, #4]
    1346:	689a      	ldr	r2, [r3, #8]
    1348:	4613      	mov	r3, r2
    134a:	005b      	lsls	r3, r3, #1
    134c:	4413      	add	r3, r2
    134e:	009b      	lsls	r3, r3, #2
    1350:	4a0b      	ldr	r2, [pc, #44]	; (1380 <task_unready+0x60>)
    1352:	4413      	add	r3, r2
    1354:	4618      	mov	r0, r3
    1356:	f000 f943 	bl	15e0 <list_count>
    135a:	4603      	mov	r3, r0
    135c:	2b00      	cmp	r3, #0
    135e:	d105      	bne.n	136c <task_unready+0x4c>
    1360:	687b      	ldr	r3, [r7, #4]
    1362:	689b      	ldr	r3, [r3, #8]
    1364:	4807      	ldr	r0, [pc, #28]	; (1384 <task_unready+0x64>)
    1366:	4619      	mov	r1, r3
    1368:	f000 f8ba 	bl	14e0 <bitmap_clear>
    136c:	687b      	ldr	r3, [r7, #4]
    136e:	689b      	ldr	r3, [r3, #8]
    1370:	4804      	ldr	r0, [pc, #16]	; (1384 <task_unready+0x64>)
    1372:	4619      	mov	r1, r3
    1374:	f000 f8b4 	bl	14e0 <bitmap_clear>
    1378:	3708      	adds	r7, #8
    137a:	46bd      	mov	sp, r7
    137c:	bd80      	pop	{r7, pc}
    137e:	bf00      	nop
    1380:	200040c0 	andcs	r4, r0, r0, asr #1
    1384:	20001030 	andcs	r1, r0, r0, lsr r0

00001388 <task_delay_wait>:
    1388:	b580      	push	{r7, lr}
    138a:	b082      	sub	sp, #8
    138c:	af00      	add	r7, sp, #0
    138e:	6078      	str	r0, [r7, #4]
    1390:	6039      	str	r1, [r7, #0]
    1392:	687b      	ldr	r3, [r7, #4]
    1394:	683a      	ldr	r2, [r7, #0]
    1396:	605a      	str	r2, [r3, #4]
    1398:	687b      	ldr	r3, [r7, #4]
    139a:	330c      	adds	r3, #12
    139c:	4806      	ldr	r0, [pc, #24]	; (13b8 <task_delay_wait+0x30>)
    139e:	4619      	mov	r1, r3
    13a0:	f000 f9be 	bl	1720 <list_insert_head>
    13a4:	687b      	ldr	r3, [r7, #4]
    13a6:	695b      	ldr	r3, [r3, #20]
    13a8:	f043 0202 	orr.w	r2, r3, #2
    13ac:	687b      	ldr	r3, [r7, #4]
    13ae:	615a      	str	r2, [r3, #20]
    13b0:	3708      	adds	r7, #8
    13b2:	46bd      	mov	sp, r7
    13b4:	bd80      	pop	{r7, pc}
    13b6:	bf00      	nop
    13b8:	20001034 	andcs	r1, r0, r4, lsr r0

000013bc <task_delay_wakeup>:
    13bc:	b580      	push	{r7, lr}
    13be:	b082      	sub	sp, #8
    13c0:	af00      	add	r7, sp, #0
    13c2:	6078      	str	r0, [r7, #4]
    13c4:	687b      	ldr	r3, [r7, #4]
    13c6:	330c      	adds	r3, #12
    13c8:	4806      	ldr	r0, [pc, #24]	; (13e4 <task_delay_wakeup+0x28>)
    13ca:	4619      	mov	r1, r3
    13cc:	f000 fa30 	bl	1830 <list_remove>
    13d0:	687b      	ldr	r3, [r7, #4]
    13d2:	695b      	ldr	r3, [r3, #20]
    13d4:	f023 0202 	bic.w	r2, r3, #2
    13d8:	687b      	ldr	r3, [r7, #4]
    13da:	615a      	str	r2, [r3, #20]
    13dc:	3708      	adds	r7, #8
    13de:	46bd      	mov	sp, r7
    13e0:	bd80      	pop	{r7, pc}
    13e2:	bf00      	nop
    13e4:	20001034 	andcs	r1, r0, r4, lsr r0

000013e8 <task_suspend>:
    13e8:	b580      	push	{r7, lr}
    13ea:	b084      	sub	sp, #16
    13ec:	af00      	add	r7, sp, #0
    13ee:	6078      	str	r0, [r7, #4]
    13f0:	f7ff ff0a 	bl	1208 <task_enter_critical>
    13f4:	60f8      	str	r0, [r7, #12]
    13f6:	687b      	ldr	r3, [r7, #4]
    13f8:	695b      	ldr	r3, [r3, #20]
    13fa:	f003 0302 	and.w	r3, r3, #2
    13fe:	2b00      	cmp	r3, #0
    1400:	d116      	bne.n	1430 <task_suspend+0x48>
    1402:	687b      	ldr	r3, [r7, #4]
    1404:	6a5b      	ldr	r3, [r3, #36]	; 0x24
    1406:	1c59      	adds	r1, r3, #1
    1408:	687a      	ldr	r2, [r7, #4]
    140a:	6251      	str	r1, [r2, #36]	; 0x24
    140c:	2b00      	cmp	r3, #0
    140e:	d10f      	bne.n	1430 <task_suspend+0x48>
    1410:	687b      	ldr	r3, [r7, #4]
    1412:	695b      	ldr	r3, [r3, #20]
    1414:	f043 0204 	orr.w	r2, r3, #4
    1418:	687b      	ldr	r3, [r7, #4]
    141a:	615a      	str	r2, [r3, #20]
    141c:	6878      	ldr	r0, [r7, #4]
    141e:	f7ff ff7f 	bl	1320 <task_unready>
    1422:	4b06      	ldr	r3, [pc, #24]	; (143c <task_suspend+0x54>)
    1424:	681b      	ldr	r3, [r3, #0]
    1426:	687a      	ldr	r2, [r7, #4]
    1428:	429a      	cmp	r2, r3
    142a:	d101      	bne.n	1430 <task_suspend+0x48>
    142c:	f7ff fdc6 	bl	fbc <task_sched>
    1430:	68f8      	ldr	r0, [r7, #12]
    1432:	f7ff fef7 	bl	1224 <task_exit_critical>
    1436:	3710      	adds	r7, #16
    1438:	46bd      	mov	sp, r7
    143a:	bd80      	pop	{r7, pc}
    143c:	200040bc 	strhcs	r4, [r0], -ip

00001440 <task_resume>:
    1440:	b580      	push	{r7, lr}
    1442:	b084      	sub	sp, #16
    1444:	af00      	add	r7, sp, #0
    1446:	6078      	str	r0, [r7, #4]
    1448:	f7ff fede 	bl	1208 <task_enter_critical>
    144c:	60f8      	str	r0, [r7, #12]
    144e:	687b      	ldr	r3, [r7, #4]
    1450:	695b      	ldr	r3, [r3, #20]
    1452:	f003 0304 	and.w	r3, r3, #4
    1456:	2b00      	cmp	r3, #0
    1458:	d013      	beq.n	1482 <task_resume+0x42>
    145a:	687b      	ldr	r3, [r7, #4]
    145c:	6a5b      	ldr	r3, [r3, #36]	; 0x24
    145e:	1e5a      	subs	r2, r3, #1
    1460:	687b      	ldr	r3, [r7, #4]
    1462:	625a      	str	r2, [r3, #36]	; 0x24
    1464:	687b      	ldr	r3, [r7, #4]
    1466:	6a5b      	ldr	r3, [r3, #36]	; 0x24
    1468:	2b00      	cmp	r3, #0
    146a:	d10a      	bne.n	1482 <task_resume+0x42>
    146c:	687b      	ldr	r3, [r7, #4]
    146e:	695b      	ldr	r3, [r3, #20]
    1470:	f023 0204 	bic.w	r2, r3, #4
    1474:	687b      	ldr	r3, [r7, #4]
    1476:	615a      	str	r2, [r3, #20]
    1478:	6878      	ldr	r0, [r7, #4]
    147a:	f7ff ff31 	bl	12e0 <task_ready>
    147e:	f7ff fd9d 	bl	fbc <task_sched>
    1482:	68f8      	ldr	r0, [r7, #12]
    1484:	f7ff fece 	bl	1224 <task_exit_critical>
    1488:	3710      	adds	r7, #16
    148a:	46bd      	mov	sp, r7
    148c:	bd80      	pop	{r7, pc}
    148e:	bf00      	nop

00001490 <bitmap_init>:
    1490:	b480      	push	{r7}
    1492:	b083      	sub	sp, #12
    1494:	af00      	add	r7, sp, #0
    1496:	6078      	str	r0, [r7, #4]
    1498:	687b      	ldr	r3, [r7, #4]
    149a:	2200      	movs	r2, #0
    149c:	601a      	str	r2, [r3, #0]
    149e:	370c      	adds	r7, #12
    14a0:	46bd      	mov	sp, r7
    14a2:	f85d 7b04 	ldr.w	r7, [sp], #4
    14a6:	4770      	bx	lr

000014a8 <bitmap_count>:
    14a8:	b480      	push	{r7}
    14aa:	af00      	add	r7, sp, #0
    14ac:	2320      	movs	r3, #32
    14ae:	4618      	mov	r0, r3
    14b0:	46bd      	mov	sp, r7
    14b2:	f85d 7b04 	ldr.w	r7, [sp], #4
    14b6:	4770      	bx	lr

000014b8 <bitmap_set>:
    14b8:	b480      	push	{r7}
    14ba:	b083      	sub	sp, #12
    14bc:	af00      	add	r7, sp, #0
    14be:	6078      	str	r0, [r7, #4]
    14c0:	6039      	str	r1, [r7, #0]
    14c2:	687b      	ldr	r3, [r7, #4]
    14c4:	681b      	ldr	r3, [r3, #0]
    14c6:	683a      	ldr	r2, [r7, #0]
    14c8:	2101      	movs	r1, #1
    14ca:	fa01 f202 	lsl.w	r2, r1, r2
    14ce:	431a      	orrs	r2, r3
    14d0:	687b      	ldr	r3, [r7, #4]
    14d2:	601a      	str	r2, [r3, #0]
    14d4:	370c      	adds	r7, #12
    14d6:	46bd      	mov	sp, r7
    14d8:	f85d 7b04 	ldr.w	r7, [sp], #4
    14dc:	4770      	bx	lr
    14de:	bf00      	nop

000014e0 <bitmap_clear>:
    14e0:	b480      	push	{r7}
    14e2:	b083      	sub	sp, #12
    14e4:	af00      	add	r7, sp, #0
    14e6:	6078      	str	r0, [r7, #4]
    14e8:	6039      	str	r1, [r7, #0]
    14ea:	687b      	ldr	r3, [r7, #4]
    14ec:	681b      	ldr	r3, [r3, #0]
    14ee:	683a      	ldr	r2, [r7, #0]
    14f0:	2101      	movs	r1, #1
    14f2:	fa01 f202 	lsl.w	r2, r1, r2
    14f6:	43d2      	mvns	r2, r2
    14f8:	401a      	ands	r2, r3
    14fa:	687b      	ldr	r3, [r7, #4]
    14fc:	601a      	str	r2, [r3, #0]
    14fe:	370c      	adds	r7, #12
    1500:	46bd      	mov	sp, r7
    1502:	f85d 7b04 	ldr.w	r7, [sp], #4
    1506:	4770      	bx	lr

00001508 <bitmap_get_first_set>:
    1508:	b580      	push	{r7, lr}
    150a:	b084      	sub	sp, #16
    150c:	af00      	add	r7, sp, #0
    150e:	6078      	str	r0, [r7, #4]
    1510:	2320      	movs	r3, #32
    1512:	60fb      	str	r3, [r7, #12]
    1514:	687b      	ldr	r3, [r7, #4]
    1516:	681b      	ldr	r3, [r3, #0]
    1518:	b2db      	uxtb	r3, r3
    151a:	2b00      	cmp	r3, #0
    151c:	d006      	beq.n	152c <bitmap_get_first_set+0x24>
    151e:	687b      	ldr	r3, [r7, #4]
    1520:	681b      	ldr	r3, [r3, #0]
    1522:	b2db      	uxtb	r3, r3
    1524:	4a1b      	ldr	r2, [pc, #108]	; (1594 <bitmap_get_first_set+0x8c>)
    1526:	5cd3      	ldrb	r3, [r2, r3]
    1528:	60fb      	str	r3, [r7, #12]
    152a:	e02e      	b.n	158a <bitmap_get_first_set+0x82>
    152c:	687b      	ldr	r3, [r7, #4]
    152e:	681b      	ldr	r3, [r3, #0]
    1530:	f403 437f 	and.w	r3, r3, #65280	; 0xff00
    1534:	2b00      	cmp	r3, #0
    1536:	d008      	beq.n	154a <bitmap_get_first_set+0x42>
    1538:	687b      	ldr	r3, [r7, #4]
    153a:	681b      	ldr	r3, [r3, #0]
    153c:	0a1b      	lsrs	r3, r3, #8
    153e:	b2db      	uxtb	r3, r3
    1540:	4a14      	ldr	r2, [pc, #80]	; (1594 <bitmap_get_first_set+0x8c>)
    1542:	5cd3      	ldrb	r3, [r2, r3]
    1544:	3308      	adds	r3, #8
    1546:	60fb      	str	r3, [r7, #12]
    1548:	e01f      	b.n	158a <bitmap_get_first_set+0x82>
    154a:	687b      	ldr	r3, [r7, #4]
    154c:	681b      	ldr	r3, [r3, #0]
    154e:	f403 037f 	and.w	r3, r3, #16711680	; 0xff0000
    1552:	2b00      	cmp	r3, #0
    1554:	d008      	beq.n	1568 <bitmap_get_first_set+0x60>
    1556:	687b      	ldr	r3, [r7, #4]
    1558:	681b      	ldr	r3, [r3, #0]
    155a:	0c1b      	lsrs	r3, r3, #16
    155c:	b2db      	uxtb	r3, r3
    155e:	4a0d      	ldr	r2, [pc, #52]	; (1594 <bitmap_get_first_set+0x8c>)
    1560:	5cd3      	ldrb	r3, [r2, r3]
    1562:	3310      	adds	r3, #16
    1564:	60fb      	str	r3, [r7, #12]
    1566:	e010      	b.n	158a <bitmap_get_first_set+0x82>
    1568:	687b      	ldr	r3, [r7, #4]
    156a:	681b      	ldr	r3, [r3, #0]
    156c:	f003 437f 	and.w	r3, r3, #4278190080	; 0xff000000
    1570:	2b00      	cmp	r3, #0
    1572:	d007      	beq.n	1584 <bitmap_get_first_set+0x7c>
    1574:	687b      	ldr	r3, [r7, #4]
    1576:	681b      	ldr	r3, [r3, #0]
    1578:	0e1b      	lsrs	r3, r3, #24
    157a:	4a06      	ldr	r2, [pc, #24]	; (1594 <bitmap_get_first_set+0x8c>)
    157c:	5cd3      	ldrb	r3, [r2, r3]
    157e:	3318      	adds	r3, #24
    1580:	60fb      	str	r3, [r7, #12]
    1582:	e002      	b.n	158a <bitmap_get_first_set+0x82>
    1584:	f7ff ff90 	bl	14a8 <bitmap_count>
    1588:	60f8      	str	r0, [r7, #12]
    158a:	68fb      	ldr	r3, [r7, #12]
    158c:	4618      	mov	r0, r3
    158e:	3710      	adds	r7, #16
    1590:	46bd      	mov	sp, r7
    1592:	bd80      	pop	{r7, pc}
    1594:	0000198c 	andeq	r1, r0, ip, lsl #19

00001598 <list_node_init>:
    1598:	b480      	push	{r7}
    159a:	b083      	sub	sp, #12
    159c:	af00      	add	r7, sp, #0
    159e:	6078      	str	r0, [r7, #4]
    15a0:	687b      	ldr	r3, [r7, #4]
    15a2:	2b00      	cmp	r3, #0
    15a4:	d005      	beq.n	15b2 <list_node_init+0x1a>
    15a6:	687b      	ldr	r3, [r7, #4]
    15a8:	687a      	ldr	r2, [r7, #4]
    15aa:	601a      	str	r2, [r3, #0]
    15ac:	687b      	ldr	r3, [r7, #4]
    15ae:	687a      	ldr	r2, [r7, #4]
    15b0:	605a      	str	r2, [r3, #4]
    15b2:	370c      	adds	r7, #12
    15b4:	46bd      	mov	sp, r7
    15b6:	f85d 7b04 	ldr.w	r7, [sp], #4
    15ba:	4770      	bx	lr

000015bc <list_init>:
    15bc:	b580      	push	{r7, lr}
    15be:	b082      	sub	sp, #8
    15c0:	af00      	add	r7, sp, #0
    15c2:	6078      	str	r0, [r7, #4]
    15c4:	687b      	ldr	r3, [r7, #4]
    15c6:	2b00      	cmp	r3, #0
    15c8:	d006      	beq.n	15d8 <list_init+0x1c>
    15ca:	687b      	ldr	r3, [r7, #4]
    15cc:	2200      	movs	r2, #0
    15ce:	609a      	str	r2, [r3, #8]
    15d0:	687b      	ldr	r3, [r7, #4]
    15d2:	4618      	mov	r0, r3
    15d4:	f7ff ffe0 	bl	1598 <list_node_init>
    15d8:	3708      	adds	r7, #8
    15da:	46bd      	mov	sp, r7
    15dc:	bd80      	pop	{r7, pc}
    15de:	bf00      	nop

000015e0 <list_count>:
    15e0:	b480      	push	{r7}
    15e2:	b085      	sub	sp, #20
    15e4:	af00      	add	r7, sp, #0
    15e6:	6078      	str	r0, [r7, #4]
    15e8:	2300      	movs	r3, #0
    15ea:	60fb      	str	r3, [r7, #12]
    15ec:	687b      	ldr	r3, [r7, #4]
    15ee:	2b00      	cmp	r3, #0
    15f0:	d002      	beq.n	15f8 <list_count+0x18>
    15f2:	687b      	ldr	r3, [r7, #4]
    15f4:	689b      	ldr	r3, [r3, #8]
    15f6:	60fb      	str	r3, [r7, #12]
    15f8:	68fb      	ldr	r3, [r7, #12]
    15fa:	4618      	mov	r0, r3
    15fc:	3714      	adds	r7, #20
    15fe:	46bd      	mov	sp, r7
    1600:	f85d 7b04 	ldr.w	r7, [sp], #4
    1604:	4770      	bx	lr
    1606:	bf00      	nop

00001608 <list_head>:
    1608:	b480      	push	{r7}
    160a:	b085      	sub	sp, #20
    160c:	af00      	add	r7, sp, #0
    160e:	6078      	str	r0, [r7, #4]
    1610:	687b      	ldr	r3, [r7, #4]
    1612:	60bb      	str	r3, [r7, #8]
    1614:	2300      	movs	r3, #0
    1616:	60fb      	str	r3, [r7, #12]
    1618:	687b      	ldr	r3, [r7, #4]
    161a:	689b      	ldr	r3, [r3, #8]
    161c:	2b00      	cmp	r3, #0
    161e:	d002      	beq.n	1626 <list_head+0x1e>
    1620:	68bb      	ldr	r3, [r7, #8]
    1622:	685b      	ldr	r3, [r3, #4]
    1624:	60fb      	str	r3, [r7, #12]
    1626:	68fb      	ldr	r3, [r7, #12]
    1628:	4618      	mov	r0, r3
    162a:	3714      	adds	r7, #20
    162c:	46bd      	mov	sp, r7
    162e:	f85d 7b04 	ldr.w	r7, [sp], #4
    1632:	4770      	bx	lr

00001634 <list_tail>:
    1634:	b480      	push	{r7}
    1636:	b085      	sub	sp, #20
    1638:	af00      	add	r7, sp, #0
    163a:	6078      	str	r0, [r7, #4]
    163c:	687b      	ldr	r3, [r7, #4]
    163e:	60bb      	str	r3, [r7, #8]
    1640:	2300      	movs	r3, #0
    1642:	60fb      	str	r3, [r7, #12]
    1644:	687b      	ldr	r3, [r7, #4]
    1646:	689b      	ldr	r3, [r3, #8]
    1648:	2b00      	cmp	r3, #0
    164a:	d002      	beq.n	1652 <list_tail+0x1e>
    164c:	68bb      	ldr	r3, [r7, #8]
    164e:	681b      	ldr	r3, [r3, #0]
    1650:	60fb      	str	r3, [r7, #12]
    1652:	68fb      	ldr	r3, [r7, #12]
    1654:	4618      	mov	r0, r3
    1656:	3714      	adds	r7, #20
    1658:	46bd      	mov	sp, r7
    165a:	f85d 7b04 	ldr.w	r7, [sp], #4
    165e:	4770      	bx	lr

00001660 <node_prev>:
    1660:	b480      	push	{r7}
    1662:	b085      	sub	sp, #20
    1664:	af00      	add	r7, sp, #0
    1666:	6078      	str	r0, [r7, #4]
    1668:	2300      	movs	r3, #0
    166a:	60fb      	str	r3, [r7, #12]
    166c:	687b      	ldr	r3, [r7, #4]
    166e:	2b00      	cmp	r3, #0
    1670:	d002      	beq.n	1678 <node_prev+0x18>
    1672:	687b      	ldr	r3, [r7, #4]
    1674:	681b      	ldr	r3, [r3, #0]
    1676:	60fb      	str	r3, [r7, #12]
    1678:	68fb      	ldr	r3, [r7, #12]
    167a:	4618      	mov	r0, r3
    167c:	3714      	adds	r7, #20
    167e:	46bd      	mov	sp, r7
    1680:	f85d 7b04 	ldr.w	r7, [sp], #4
    1684:	4770      	bx	lr
    1686:	bf00      	nop

00001688 <node_next>:
    1688:	b480      	push	{r7}
    168a:	b085      	sub	sp, #20
    168c:	af00      	add	r7, sp, #0
    168e:	6078      	str	r0, [r7, #4]
    1690:	2300      	movs	r3, #0
    1692:	60fb      	str	r3, [r7, #12]
    1694:	687b      	ldr	r3, [r7, #4]
    1696:	2b00      	cmp	r3, #0
    1698:	d002      	beq.n	16a0 <node_next+0x18>
    169a:	687b      	ldr	r3, [r7, #4]
    169c:	685b      	ldr	r3, [r3, #4]
    169e:	60fb      	str	r3, [r7, #12]
    16a0:	68fb      	ldr	r3, [r7, #12]
    16a2:	4618      	mov	r0, r3
    16a4:	3714      	adds	r7, #20
    16a6:	46bd      	mov	sp, r7
    16a8:	f85d 7b04 	ldr.w	r7, [sp], #4
    16ac:	4770      	bx	lr
    16ae:	bf00      	nop

000016b0 <list_remove_all>:
    16b0:	b480      	push	{r7}
    16b2:	b087      	sub	sp, #28
    16b4:	af00      	add	r7, sp, #0
    16b6:	6078      	str	r0, [r7, #4]
    16b8:	2300      	movs	r3, #0
    16ba:	60fb      	str	r3, [r7, #12]
    16bc:	2300      	movs	r3, #0
    16be:	613b      	str	r3, [r7, #16]
    16c0:	2300      	movs	r3, #0
    16c2:	60bb      	str	r3, [r7, #8]
    16c4:	687b      	ldr	r3, [r7, #4]
    16c6:	2b00      	cmp	r3, #0
    16c8:	d100      	bne.n	16cc <list_remove_all+0x1c>
    16ca:	e022      	b.n	1712 <list_remove_all+0x62>
    16cc:	687b      	ldr	r3, [r7, #4]
    16ce:	60fb      	str	r3, [r7, #12]
    16d0:	68fb      	ldr	r3, [r7, #12]
    16d2:	685b      	ldr	r3, [r3, #4]
    16d4:	613b      	str	r3, [r7, #16]
    16d6:	687b      	ldr	r3, [r7, #4]
    16d8:	689b      	ldr	r3, [r3, #8]
    16da:	617b      	str	r3, [r7, #20]
    16dc:	e00d      	b.n	16fa <list_remove_all+0x4a>
    16de:	693b      	ldr	r3, [r7, #16]
    16e0:	60bb      	str	r3, [r7, #8]
    16e2:	68bb      	ldr	r3, [r7, #8]
    16e4:	685b      	ldr	r3, [r3, #4]
    16e6:	613b      	str	r3, [r7, #16]
    16e8:	68bb      	ldr	r3, [r7, #8]
    16ea:	68ba      	ldr	r2, [r7, #8]
    16ec:	605a      	str	r2, [r3, #4]
    16ee:	68bb      	ldr	r3, [r7, #8]
    16f0:	68ba      	ldr	r2, [r7, #8]
    16f2:	601a      	str	r2, [r3, #0]
    16f4:	697b      	ldr	r3, [r7, #20]
    16f6:	3b01      	subs	r3, #1
    16f8:	617b      	str	r3, [r7, #20]
    16fa:	697b      	ldr	r3, [r7, #20]
    16fc:	2b00      	cmp	r3, #0
    16fe:	d1ee      	bne.n	16de <list_remove_all+0x2e>
    1700:	68fb      	ldr	r3, [r7, #12]
    1702:	68fa      	ldr	r2, [r7, #12]
    1704:	601a      	str	r2, [r3, #0]
    1706:	68fb      	ldr	r3, [r7, #12]
    1708:	68fa      	ldr	r2, [r7, #12]
    170a:	605a      	str	r2, [r3, #4]
    170c:	687b      	ldr	r3, [r7, #4]
    170e:	2200      	movs	r2, #0
    1710:	609a      	str	r2, [r3, #8]
    1712:	bf00      	nop
    1714:	371c      	adds	r7, #28
    1716:	46bd      	mov	sp, r7
    1718:	f85d 7b04 	ldr.w	r7, [sp], #4
    171c:	4770      	bx	lr
    171e:	bf00      	nop

00001720 <list_insert_head>:
    1720:	b480      	push	{r7}
    1722:	b085      	sub	sp, #20
    1724:	af00      	add	r7, sp, #0
    1726:	6078      	str	r0, [r7, #4]
    1728:	6039      	str	r1, [r7, #0]
    172a:	2300      	movs	r3, #0
    172c:	60fb      	str	r3, [r7, #12]
    172e:	2300      	movs	r3, #0
    1730:	60bb      	str	r3, [r7, #8]
    1732:	687b      	ldr	r3, [r7, #4]
    1734:	2b00      	cmp	r3, #0
    1736:	d100      	bne.n	173a <list_insert_head+0x1a>
    1738:	e015      	b.n	1766 <list_insert_head+0x46>
    173a:	687b      	ldr	r3, [r7, #4]
    173c:	60fb      	str	r3, [r7, #12]
    173e:	68fb      	ldr	r3, [r7, #12]
    1740:	685b      	ldr	r3, [r3, #4]
    1742:	60bb      	str	r3, [r7, #8]
    1744:	68fb      	ldr	r3, [r7, #12]
    1746:	683a      	ldr	r2, [r7, #0]
    1748:	605a      	str	r2, [r3, #4]
    174a:	68bb      	ldr	r3, [r7, #8]
    174c:	683a      	ldr	r2, [r7, #0]
    174e:	601a      	str	r2, [r3, #0]
    1750:	683b      	ldr	r3, [r7, #0]
    1752:	68fa      	ldr	r2, [r7, #12]
    1754:	601a      	str	r2, [r3, #0]
    1756:	683b      	ldr	r3, [r7, #0]
    1758:	68ba      	ldr	r2, [r7, #8]
    175a:	605a      	str	r2, [r3, #4]
    175c:	687b      	ldr	r3, [r7, #4]
    175e:	689b      	ldr	r3, [r3, #8]
    1760:	1c5a      	adds	r2, r3, #1
    1762:	687b      	ldr	r3, [r7, #4]
    1764:	609a      	str	r2, [r3, #8]
    1766:	bf00      	nop
    1768:	3714      	adds	r7, #20
    176a:	46bd      	mov	sp, r7
    176c:	f85d 7b04 	ldr.w	r7, [sp], #4
    1770:	4770      	bx	lr
    1772:	bf00      	nop

00001774 <list_append_last>:
    1774:	b480      	push	{r7}
    1776:	b085      	sub	sp, #20
    1778:	af00      	add	r7, sp, #0
    177a:	6078      	str	r0, [r7, #4]
    177c:	6039      	str	r1, [r7, #0]
    177e:	2300      	movs	r3, #0
    1780:	60fb      	str	r3, [r7, #12]
    1782:	2300      	movs	r3, #0
    1784:	60bb      	str	r3, [r7, #8]
    1786:	687b      	ldr	r3, [r7, #4]
    1788:	2b00      	cmp	r3, #0
    178a:	d100      	bne.n	178e <list_append_last+0x1a>
    178c:	e015      	b.n	17ba <list_append_last+0x46>
    178e:	687b      	ldr	r3, [r7, #4]
    1790:	60fb      	str	r3, [r7, #12]
    1792:	68fb      	ldr	r3, [r7, #12]
    1794:	685b      	ldr	r3, [r3, #4]
    1796:	60bb      	str	r3, [r7, #8]
    1798:	68fb      	ldr	r3, [r7, #12]
    179a:	683a      	ldr	r2, [r7, #0]
    179c:	601a      	str	r2, [r3, #0]
    179e:	68bb      	ldr	r3, [r7, #8]
    17a0:	683a      	ldr	r2, [r7, #0]
    17a2:	605a      	str	r2, [r3, #4]
    17a4:	683b      	ldr	r3, [r7, #0]
    17a6:	68fa      	ldr	r2, [r7, #12]
    17a8:	605a      	str	r2, [r3, #4]
    17aa:	683b      	ldr	r3, [r7, #0]
    17ac:	68ba      	ldr	r2, [r7, #8]
    17ae:	601a      	str	r2, [r3, #0]
    17b0:	687b      	ldr	r3, [r7, #4]
    17b2:	689b      	ldr	r3, [r3, #8]
    17b4:	1c5a      	adds	r2, r3, #1
    17b6:	687b      	ldr	r3, [r7, #4]
    17b8:	609a      	str	r2, [r3, #8]
    17ba:	bf00      	nop
    17bc:	3714      	adds	r7, #20
    17be:	46bd      	mov	sp, r7
    17c0:	f85d 7b04 	ldr.w	r7, [sp], #4
    17c4:	4770      	bx	lr
    17c6:	bf00      	nop

000017c8 <list_remove_first>:
    17c8:	b480      	push	{r7}
    17ca:	b087      	sub	sp, #28
    17cc:	af00      	add	r7, sp, #0
    17ce:	6078      	str	r0, [r7, #4]
    17d0:	2300      	movs	r3, #0
    17d2:	613b      	str	r3, [r7, #16]
    17d4:	2300      	movs	r3, #0
    17d6:	60fb      	str	r3, [r7, #12]
    17d8:	2300      	movs	r3, #0
    17da:	617b      	str	r3, [r7, #20]
    17dc:	687b      	ldr	r3, [r7, #4]
    17de:	2b00      	cmp	r3, #0
    17e0:	d100      	bne.n	17e4 <list_remove_first+0x1c>
    17e2:	e01d      	b.n	1820 <list_remove_first+0x58>
    17e4:	687b      	ldr	r3, [r7, #4]
    17e6:	613b      	str	r3, [r7, #16]
    17e8:	693b      	ldr	r3, [r7, #16]
    17ea:	685b      	ldr	r3, [r3, #4]
    17ec:	617b      	str	r3, [r7, #20]
    17ee:	697a      	ldr	r2, [r7, #20]
    17f0:	693b      	ldr	r3, [r7, #16]
    17f2:	429a      	cmp	r2, r3
    17f4:	d100      	bne.n	17f8 <list_remove_first+0x30>
    17f6:	e013      	b.n	1820 <list_remove_first+0x58>
    17f8:	697b      	ldr	r3, [r7, #20]
    17fa:	685b      	ldr	r3, [r3, #4]
    17fc:	60fb      	str	r3, [r7, #12]
    17fe:	693b      	ldr	r3, [r7, #16]
    1800:	68fa      	ldr	r2, [r7, #12]
    1802:	605a      	str	r2, [r3, #4]
    1804:	68fb      	ldr	r3, [r7, #12]
    1806:	693a      	ldr	r2, [r7, #16]
    1808:	601a      	str	r2, [r3, #0]
    180a:	697b      	ldr	r3, [r7, #20]
    180c:	697a      	ldr	r2, [r7, #20]
    180e:	605a      	str	r2, [r3, #4]
    1810:	697b      	ldr	r3, [r7, #20]
    1812:	697a      	ldr	r2, [r7, #20]
    1814:	601a      	str	r2, [r3, #0]
    1816:	687b      	ldr	r3, [r7, #4]
    1818:	689b      	ldr	r3, [r3, #8]
    181a:	1e5a      	subs	r2, r3, #1
    181c:	687b      	ldr	r3, [r7, #4]
    181e:	609a      	str	r2, [r3, #8]
    1820:	697b      	ldr	r3, [r7, #20]
    1822:	4618      	mov	r0, r3
    1824:	371c      	adds	r7, #28
    1826:	46bd      	mov	sp, r7
    1828:	f85d 7b04 	ldr.w	r7, [sp], #4
    182c:	4770      	bx	lr
    182e:	bf00      	nop

00001830 <list_remove>:
    1830:	b580      	push	{r7, lr}
    1832:	b084      	sub	sp, #16
    1834:	af00      	add	r7, sp, #0
    1836:	6078      	str	r0, [r7, #4]
    1838:	6039      	str	r1, [r7, #0]
    183a:	2300      	movs	r3, #0
    183c:	60fb      	str	r3, [r7, #12]
    183e:	2300      	movs	r3, #0
    1840:	60bb      	str	r3, [r7, #8]
    1842:	687b      	ldr	r3, [r7, #4]
    1844:	2b00      	cmp	r3, #0
    1846:	d01c      	beq.n	1882 <list_remove+0x52>
    1848:	683b      	ldr	r3, [r7, #0]
    184a:	2b00      	cmp	r3, #0
    184c:	d019      	beq.n	1882 <list_remove+0x52>
    184e:	683b      	ldr	r3, [r7, #0]
    1850:	685b      	ldr	r3, [r3, #4]
    1852:	60fb      	str	r3, [r7, #12]
    1854:	683b      	ldr	r3, [r7, #0]
    1856:	681b      	ldr	r3, [r3, #0]
    1858:	60bb      	str	r3, [r7, #8]
    185a:	68fb      	ldr	r3, [r7, #12]
    185c:	2b00      	cmp	r3, #0
    185e:	d010      	beq.n	1882 <list_remove+0x52>
    1860:	68bb      	ldr	r3, [r7, #8]
    1862:	2b00      	cmp	r3, #0
    1864:	d00d      	beq.n	1882 <list_remove+0x52>
    1866:	68bb      	ldr	r3, [r7, #8]
    1868:	68fa      	ldr	r2, [r7, #12]
    186a:	605a      	str	r2, [r3, #4]
    186c:	68fb      	ldr	r3, [r7, #12]
    186e:	68ba      	ldr	r2, [r7, #8]
    1870:	601a      	str	r2, [r3, #0]
    1872:	687b      	ldr	r3, [r7, #4]
    1874:	689b      	ldr	r3, [r3, #8]
    1876:	1e5a      	subs	r2, r3, #1
    1878:	687b      	ldr	r3, [r7, #4]
    187a:	609a      	str	r2, [r3, #8]
    187c:	6838      	ldr	r0, [r7, #0]
    187e:	f7ff fe8b 	bl	1598 <list_node_init>
    1882:	bf00      	nop
    1884:	3710      	adds	r7, #16
    1886:	46bd      	mov	sp, r7
    1888:	bd80      	pop	{r7, pc}
    188a:	bf00      	nop
    188c:	44746e49 	ldrbtmi	r6, [r4], #-3657	; 0xfffff1b7
    1890:	75616665 	strbvc	r6, [r1, #-1637]!	; 0xfffff99b
    1894:	6148746c 	cmpvs	r8, ip, ror #8
    1898:	656c646e 	strbvs	r6, [ip, #-1134]!	; 0xfffffb92
    189c:	00000a72 	andeq	r0, r0, r2, ror sl
    18a0:	623a7325 	eorsvs	r7, sl, #-1811939328	; 0x94000000
    18a4:	726f6665 	rsbvc	r6, pc, #105906176	; 0x6500000
    18a8:	75732065 	ldrbvc	r2, [r3, #-101]!	; 0xffffff9b
    18ac:	6e657073 	mcrvs	0, 3, r7, cr5, cr3, {3}
    18b0:	00000a64 	andeq	r0, r0, r4, ror #20
    18b4:	613a7325 	teqvs	sl, r5, lsr #6
    18b8:	72657466 	rsbvc	r7, r5, #1711276032	; 0x66000000
    18bc:	73757320 	cmnvc	r5, #32, 6	; 0x80000000
    18c0:	646e6570 	strbtvs	r6, [lr], #-1392	; 0xfffffa90
    18c4:	0000000a 	andeq	r0, r0, sl
    18c8:	000a7325 	andeq	r7, sl, r5, lsr #6
    18cc:	6c6c6548 	cfstr64vs	mvdx6, [ip], #-288	; 0xfffffee0
    18d0:	5452206f 	ldrbpl	r2, [r2], #-111	; 0xffffff91
    18d4:	4320534f 			; <UNDEFINED> instruction: 0x4320534f
    18d8:	445f3330 	ldrbmi	r3, [pc], #-816	; 18e0 <list_remove+0xb0>
    18dc:	79616c65 	stmdbvc	r1!, {r0, r2, r5, r6, sl, fp, sp, lr}^
    18e0:	73694c5f 	cmnvc	r9, #24320	; 0x5f00
    18e4:	00000a74 	andeq	r0, r0, r4, ror sl
    18e8:	3a707370 	bcc	1c1e6b0 <_etext+0x1c1cc24>
    18ec:	78257830 	stmdavc	r5!, {r4, r5, fp, ip, sp, lr}
    18f0:	0000000a 	andeq	r0, r0, sl
    18f4:	3a70736d 	bcc	1c1e6b0 <_etext+0x1c1cc24>
    18f8:	78257830 	stmdavc	r5!, {r4, r5, fp, ip, sp, lr}
    18fc:	0000000a 	andeq	r0, r0, sl

00001900 <__func__.3861>:
    1900:	6b736174 	blvs	1cd9ed8 <_etext+0x1cd844c>
    1904:	6e655f31 	mcrvs	15, 3, r5, cr5, cr1, {1}
    1908:	00797274 	rsbseq	r7, r9, r4, ror r2

0000190c <__func__.3872>:
    190c:	6b736174 	blvs	1cd9ee4 <_etext+0x1cd8458>
    1910:	6e655f32 	mcrvs	15, 3, r5, cr5, cr2, {1}
    1914:	00797274 	rsbseq	r7, r9, r4, ror r2

00001918 <__func__.3877>:
    1918:	6b736174 	blvs	1cd9ef0 <_etext+0x1cd8464>
    191c:	6e655f33 	mcrvs	15, 3, r5, cr5, cr3, {1}
    1920:	00797274 	rsbseq	r7, r9, r4, ror r2

00001924 <UART0DR>:
    1924:	4000c000 	andmi	ip, r0, r0

00001928 <hex_asc_table>:
    1928:	33323130 	teqcc	r2, #48, 2
    192c:	37363534 			; <UNDEFINED> instruction: 0x37363534
    1930:	62613938 	rsbvs	r3, r1, #56, 18	; 0xe0000
    1934:	66656463 	strbtvs	r6, [r5], -r3, ror #8

00001938 <upper_hex_asc_table>:
    1938:	33323130 	teqcc	r2, #48, 2
    193c:	37363534 			; <UNDEFINED> instruction: 0x37363534
    1940:	42413938 	submi	r3, r1, #56, 18	; 0xe0000
    1944:	46454443 	strbmi	r4, [r5], -r3, asr #8

00001948 <hex_weight_value_table>:
    1948:	00000001 	andeq	r0, r0, r1
    194c:	0000000a 	andeq	r0, r0, sl
    1950:	00000064 	andeq	r0, r0, r4, rrx
    1954:	000003e8 	andeq	r0, r0, r8, ror #7
    1958:	00002710 	andeq	r2, r0, r0, lsl r7
    195c:	000186a0 	andeq	r8, r1, r0, lsr #13
    1960:	000f4240 	andeq	r4, pc, r0, asr #4
    1964:	00989680 	addseq	r9, r8, r0, lsl #13
    1968:	05f5e100 	ldrbeq	lr, [r5, #256]!	; 0x100
    196c:	000a7325 	andeq	r7, sl, r5, lsr #6

00001970 <__func__.3864>:
    1970:	6b736174 	blvs	1cd9f48 <_etext+0x1cd84bc>
    1974:	696e695f 	stmdbvs	lr!, {r0, r1, r2, r3, r4, r6, r8, fp, sp, lr}^
    1978:	00000074 	andeq	r0, r0, r4, ror r0

0000197c <__func__.3874>:
    197c:	6b736174 	blvs	1cd9f54 <_etext+0x1cd84c8>
    1980:	6e75725f 	mrcvs	2, 3, r7, cr5, cr15, {2}
    1984:	7269665f 	rsbvc	r6, r9, #99614720	; 0x5f00000
    1988:	00007473 	andeq	r7, r0, r3, ror r4

0000198c <quick_table.3774>:
    198c:	000100ff 	strdeq	r0, [r1], -pc	; <UNPREDICTABLE>
    1990:	00010002 	andeq	r0, r1, r2
    1994:	00010003 	andeq	r0, r1, r3
    1998:	00010002 	andeq	r0, r1, r2
    199c:	00010004 	andeq	r0, r1, r4
    19a0:	00010002 	andeq	r0, r1, r2
    19a4:	00010003 	andeq	r0, r1, r3
    19a8:	00010002 	andeq	r0, r1, r2
    19ac:	00010005 	andeq	r0, r1, r5
    19b0:	00010002 	andeq	r0, r1, r2
    19b4:	00010003 	andeq	r0, r1, r3
    19b8:	00010002 	andeq	r0, r1, r2
    19bc:	00010004 	andeq	r0, r1, r4
    19c0:	00010002 	andeq	r0, r1, r2
    19c4:	00010003 	andeq	r0, r1, r3
    19c8:	00010002 	andeq	r0, r1, r2
    19cc:	00010006 	andeq	r0, r1, r6
    19d0:	00010002 	andeq	r0, r1, r2
    19d4:	00010003 	andeq	r0, r1, r3
    19d8:	00010002 	andeq	r0, r1, r2
    19dc:	00010004 	andeq	r0, r1, r4
    19e0:	00010002 	andeq	r0, r1, r2
    19e4:	00010003 	andeq	r0, r1, r3
    19e8:	00010002 	andeq	r0, r1, r2
    19ec:	00010005 	andeq	r0, r1, r5
    19f0:	00010002 	andeq	r0, r1, r2
    19f4:	00010003 	andeq	r0, r1, r3
    19f8:	00010002 	andeq	r0, r1, r2
    19fc:	00010004 	andeq	r0, r1, r4
    1a00:	00010002 	andeq	r0, r1, r2
    1a04:	00010003 	andeq	r0, r1, r3
    1a08:	00010002 	andeq	r0, r1, r2
    1a0c:	00010007 	andeq	r0, r1, r7
    1a10:	00010002 	andeq	r0, r1, r2
    1a14:	00010003 	andeq	r0, r1, r3
    1a18:	00010002 	andeq	r0, r1, r2
    1a1c:	00010004 	andeq	r0, r1, r4
    1a20:	00010002 	andeq	r0, r1, r2
    1a24:	00010003 	andeq	r0, r1, r3
    1a28:	00010002 	andeq	r0, r1, r2
    1a2c:	00010005 	andeq	r0, r1, r5
    1a30:	00010002 	andeq	r0, r1, r2
    1a34:	00010003 	andeq	r0, r1, r3
    1a38:	00010002 	andeq	r0, r1, r2
    1a3c:	00010004 	andeq	r0, r1, r4
    1a40:	00010002 	andeq	r0, r1, r2
    1a44:	00010003 	andeq	r0, r1, r3
    1a48:	00010002 	andeq	r0, r1, r2
    1a4c:	00010006 	andeq	r0, r1, r6
    1a50:	00010002 	andeq	r0, r1, r2
    1a54:	00010003 	andeq	r0, r1, r3
    1a58:	00010002 	andeq	r0, r1, r2
    1a5c:	00010004 	andeq	r0, r1, r4
    1a60:	00010002 	andeq	r0, r1, r2
    1a64:	00010003 	andeq	r0, r1, r3
    1a68:	00010002 	andeq	r0, r1, r2
    1a6c:	00010005 	andeq	r0, r1, r5
    1a70:	00010002 	andeq	r0, r1, r2
    1a74:	00010003 	andeq	r0, r1, r3
    1a78:	00010002 	andeq	r0, r1, r2
    1a7c:	00010004 	andeq	r0, r1, r4
    1a80:	00010002 	andeq	r0, r1, r2
    1a84:	00010003 	andeq	r0, r1, r3
    1a88:	00010002 	andeq	r0, r1, r2

Disassembly of section .bss:

20000000 <_bss>:
	...

20000028 <g_idle_task>:
20000028:	00000000 	andeq	r0, r0, r0

2000002c <g_idle_task_stk>:
	...

2000102c <g_sched_lock>:
2000102c:	00000000 	andeq	r0, r0, r0

20001030 <g_task_prio_bitmap>:
20001030:	00000000 	andeq	r0, r0, r0

20001034 <g_task_delay_list>:
	...

20001040 <task1_stk>:
	...

20002040 <task1>:
	...

20002068 <task2>:
	...

20002090 <task2_stk>:
	...

20003090 <task3_stk>:
	...

20004090 <task3>:
	...

200040b8 <g_next_task>:
200040b8:	00000000 	andeq	r0, r0, r0

200040bc <g_current_task>:
200040bc:	00000000 	andeq	r0, r0, r0

200040c0 <g_task_table>:
	...

